:1000000087C30000B6C30000B4C30000B2C3000041
:10001000B0C30000AEC30000ACC30000AAC3000020
:10002000A8C30000A6C30000A4C30000A2C3000030
:10003000A0C300009EC300009CC300009AC3000040
:1000400098C3000096C3000094C3000092C3000050
:1000500090C300008EC300008CC300000C94B51246
:1000600088C300000C9482110C94591182C30000C3
:1000700080C300007EC300007CC300007AC3000080
:1000800078C3000076C3000074C3000072C3000090
:1000900070C300006EC300006CC300000C94220B00
:1000A00068C3000066C3000064C3000062C30000B0
:1000B00060C300005EC300005CC300005AC30000C0
:1000C00058C3000056C3000054C3000052C30000D0
:1000D00050C300004EC300004CC300004AC30000E0
:1000E00048C30000E711EA11D911DD11E111211215
:1000F000EE11F211F811FC11001206120A120E1282
:100100002112141218121C120000210024002700D2
:100110002A002D0030003300010100000401070116
:100120000A0100000000003E5B4F5B3E3E6B4F6BE0
:100130003E1C3E7C3E1C183C7E3C181C577D571CC8
:100140001C5E7F5E1C00183C1800FFE7C3E7FF0041
:1001500018241800FFE7DBE7FF30483A060E26298F
:10016000792926407F050507407F05253F5A3CE752
:100170003C5A7F3E1C1C08081C1C3E7F14227F2218
:10018000145F5F005F5F06097F017F006689956AE3
:10019000606060606094A2FFA29408047E0408106E
:1001A000207E201008082A1C08081C2A08081E1097
:1001B0001010100C1E0C1E0C30383E3830060E3E4F
:1001C0000E06000000000000005F000000070007AE
:1001D00000147F147F14242A7F2A122313086462D8
:1001E00036495620500008070300001C2241000039
:1001F00041221C002A1C7F1C2A08083E0808008097
:10020000703000080808080800006060002010082E
:1002100004023E5149453E00427F4000724949492F
:10022000462141494D331814127F10274545453961
:100230003C4A494931412111090736494949364665
:100240004949291E00001400000040340000000845
:1002500014224114141414140041221408020159E8
:1002600009063E415D594E7C1211127C7F49494975
:10027000363E414141227F4141413E7F494949410A
:100280007F090909013E414151737F0808087F0039
:10029000417F41002040413F017F081422417F40BF
:1002A0004040407F021C027F7F0408107F3E414196
:1002B000413E7F090909063E4151215E7F09192906
:1002C00046264949493203017F01033F4040403FF0
:1002D0001F2040201F3F4038403F63140814630331
:1002E000047804036159494D43007F4141410204B0
:1002F000081020004141417F0402010204404040B7
:100300004040000307080020545478407F284444AC
:10031000383844444428384444287F3854545418C6
:1003200000087E090218A4A49C787F0804047800C1
:10033000447D40002040403D007F102844000041A3
:100340007F40007C047804787C08040478384444B6
:100350004438FC1824241818242418FC7C080404AD
:1003600008485454542404043F44243C4040207C16
:100370001C2040201C3C4030403C44281028444C69
:100380009090907C4464544C440008364100000036
:10039000770000004136080002010204023C2623D7
:1003A000263C1EA1A161123A4040207A385454558F
:1003B0005921555579412254547842215554784059
:1003C00020545579400C1E527212395555555939E1
:1003D0005454545939555454580000457C41000236
:1003E000457D420001457C407D1211127DF028259B
:1003F00028F07C545545002054547C547C0A097FD5
:100400004932494949323A4444443A324A484830E8
:100410003A4141217A3A42402078009DA0A07D3D9A
:100420004242423D3D4040403D3C24FF2424487E22
:100430004943662B2FFC2F2BFF0929F620C0887E0D
:10044000090320545479410000447D413048484A12
:1004500032384040227A007A0A0A727D0D19317DC5
:100460002629292F28262929292630484D40203899
:100470000808080808080808382F10C8ACBA2F1058
:100480002834FA00007B000008142A142222142ABF
:1004900014085500550055AA55AA55AAFF55FF55F1
:1004A000FF000000FF00101010FF00141414FF00E4
:1004B0001010FF00FF1010F010F0141414FC0014C2
:1004C00014F700FF0000FF00FF1414F404FC1414E0
:1004D00017101F10101F101F1414141F00101010DD
:1004E000F0000000001F101010101F10101010F06E
:1004F00010000000FF101010101010101010FF104E
:10050000000000FF140000FF00FF00001F10170094
:1005100000FC04F414141710171414F404F400006D
:10052000FF00F714141414141414F700F71414141F
:10053000171410101F101F141414F4141010F010BE
:10054000F000001F101F0000001F14000000FC142A
:100550000000F010F01010FF10FF141414FF14101E
:1005600010101F00000000F010FFFFFFFFFFF0F071
:10057000F0F0F0FFFFFF0000000000FFFF0F0F0F83
:100580000F0F3844443844FC4A4A4A347E0202067B
:1005900006027E027E0263554941633844443C04AE
:1005A000407E201E2006027E020299A5E7A5991C26
:1005B0002A492A1C4C7201724C304A4D4D30304849
:1005C000784830BC625A463D3E494949007E0101A7
:1005D000017E2A2A2A2A2A44445F444440514A443C
:1005E0004040444A51400000FF0103E080FF00000A
:1005F00008086B6B083612362436060F090F060002
:100600000018180000001010003040FF0101001F0A
:1006100001011E00191D1712003C3C3C3C0000006B
:10062000000000000A0B02090C0D0E08070304016C
:1006300000000000000000000000000000000000BA
:100640000000000000000000000000000000121187
:10065000100000000000000000000000000000008A
:100660000000000000000000010210202008081017
:100670002040102040800201020108040201010212
:1006800004081020408080402010080402018004EB
:100690000201804020100804020108040201010246
:1006A000040810204080010204081020408000004F
:1006B0002200250028002B002E003100340002010A
:1006C0000000050108010B010505050507050808DF
:1006D0000808020202020A0A0808040404040101CC
:1006E00001010101010103030303030303030407E1
:1006F00007070C0C0C0C0C0C0C0C02020202060678
:100700000606060606060B0B0B0B0B0B0B0B9B22B0
:1007100011241FBECFEFD1E2DEBFCDBF00E00CBF82
:1007200012E0A0E0B2E0EEE6F8E400E00BBF02C0A9
:1007300007900D92A83BB107D9F726E0A8EBB2E0ED
:1007400001C01D92AC34B207E1F713E0C8E8D3E072
:1007500000E006C021970109802FFE010E940E24AF
:10076000C738D10780E00807A9F70E94A6170C94A4
:10077000352446CCCF92DF92EF92FF920F931F93D6
:10078000CF93DF9300D000D0CDB7DEB76C01DC0192
:10079000ED91FC916217730789F4041715072CF487
:1007A000942F852FA801092F182F041B150B9801D2
:1007B0002F5F3F4F048CF58DE02D12C0401751077D
:1007C00009F5261737072CF4962F872FB901292F03
:1007D000382F261B370B2F5F3F4F068CF78DE02DF0
:1007E0008701C601199526960FB6F894DEBF0FBE95
:1007F000CDBFDF91CF911F910F91FF90EF90DF90D0
:10080000CF9008950284F385E02D2D833E834B83A2
:100810005C8369837A831995D601ED91FC910488F4
:10082000F589E02D2D813E814B815C8169817A8142
:10083000C6011995D601ED91FC910688F789E02D46
:10084000C60126960FB6F894DEBF0FBECDBFDF916E
:10085000CF911F910F91FF90EF90DF90CF9019945F
:10086000EF92FF920F931F93DC01ED91FC91119792
:100870001A960D911C911B9718962D913C911997E2
:1008800000A0F1A1E02D7B0140E050E060E070E0CD
:1008900019951F910F91FF90EF9008954F925F92DD
:1008A0006F927F928F929F92AF92BF92CF92DF9280
:1008B000EF92FF920F931F93CF93DF931F921F929C
:1008C000CDB7DEB76C015A0139014801DC01ED9169
:1008D000FC910284F385E02D69837A8319956981FF
:1008E000462E7A81572E640C751CD601ED91FC9131
:1008F000461457046CF40088F189E02D87019401B7
:10090000A501B201C6011995BFEF4B1A5B0AEDCFE5
:100910000688F789E02DC6010F900F90DF91CF91E7
:100920001F910F91FF90EF90DF90CF90BF90AF900D
:100930009F908F907F906F905F904F901994AF929F
:10094000BF92CF92DF92EF92FF920F931F93CF93BC
:10095000DF9300D01F92CDB7DEB75C016901DC01E7
:10096000ED91FC910284F385E02D4B835C836983D8
:100970007A831995D501ED91FC9169817A819B016A
:100980002C0D3D1D215031090488F589E02D780199
:100990004B815C818A01C5011995D501ED91FC91CE
:1009A0000688F789E02DC5010F900F900F900F90EA
:1009B000DF91CF911F910F91FF90EF90DF90CF903B
:1009C000BF90AF901994AF92BF92CF92DF92EF9207
:1009D000FF920F931F93CF93DF9300D01F92CDB759
:1009E000DEB75C016901DC01ED91FC910284F385C5
:1009F000E02D4B835C8369837A831995D501ED9152
:100A0000FC914B815C81C40ED51EB1E0CB1AD1089C
:100A10000488F589E02D7801860169817A819B013E
:100A2000C5011995D501ED91FC910688F789E02D56
:100A3000C5010F900F900F900F90DF91CF911F91F4
:100A40000F91FF90EF90DF90CF90BF90AF901994EF
:100A50000895EF92FF920F931F93DC01ED91FC91AB
:100A600000A0F1A1E02D19951F910F91FF90EF903B
:100A700008950F931F93DC01ED91FC91068CF78D87
:100A8000E02D19951F910F9108950F931F93DC018D
:100A9000ED91FC91048CF58DE02D19951F910F912E
:100AA0000895DC01ED91FC910084F185E02D19940D
:100AB00008952F923F924F925F926F927F928F9202
:100AC0009F92AF92BF92CF92DF92EF92FF920F93DD
:100AD0001F93CF93DF9300D0CDB7DEB74C017B835C
:100AE0006A836A01590117019801241B350B37FFEE
:100AF00003C0319521953109C5014A815B81841B71
:100B0000950B97FF03C091958195910951E0598309
:100B10008217930714F019820BC09A2D8B2D580160
:100B2000092F182F9A818B81DB82CA82C92ED82E79
:100B30008A819B81A816B9065CF49C2D8D2D6801D5
:100B4000092F182F9A818B81BB82AA82A92EB82ED9
:100B50002501AA81BB814A1A5B0A38016C187D08FD
:100B600077FE03C0719461947108720157FE03C04F
:100B7000BFEFEB1AFB0AF594E794C016D1061CF000
:100B80000FEF1FEF1FC001E010E01CC0D401ED917A
:100B9000FC91B9810484F585E02D9101BB23C1F05E
:100BA0004A815B81B601C4011995E618F708F7FE82
:100BB00004C0C00ED11EE40CF51CEA81FB81319605
:100BC000FB83EA834A815B81A416B506FCF604C068
:100BD000A6016A817B81E7CF0F900F900F90DF9184
:100BE000CF911F910F91FF90EF90DF90CF90BF902A
:100BF000AF909F908F907F906F905F904F903F90BD
:100C00002F900895CF92DF92EF92FF920F931F9350
:100C1000CF93DF9300D000D0CDB7DEB76C01DC01FD
:100C2000ED91FC910284F385E02D2D833E834B836F
:100C30005C8369837A831995D601ED91FC910684D2
:100C4000F785E02D2D813E814B815C8169817A8120
:100C5000C6011995D601ED91FC910688F789E02D22
:100C6000C60126960FB6F894DEBF0FBECDBFDF914A
:100C7000CF911F910F91FF90EF90DF90CF9019943B
:100C8000EF92FF920F931F93CF93DF9300D000D08A
:100C9000CDB7DEB77C01DC01ED91FC910284F385D8
:100CA000E02D2D833E834B835C8369837A83199582
:100CB000D701ED91FC910288F389E02D2D813E81D1
:100CC0004B815C8169817A81C7011995D701ED91CA
:100CD000FC910688F789E02DC70126960FB6F89497
:100CE000DEBF0FBECDBFDF91CF911F910F91FF905F
:100CF000EF901994EF92FF920F931F93CF93DF938E
:100D000000D000D0CDB7DEB77C01DC01ED91FC91C5
:100D10000284F385E02D2D833E834B835C836983BE
:100D20007A831995D701ED91FC910088F189E02D26
:100D30002D813E814B815C8169817A81C701199542
:100D4000D701ED91FC910688F789E02DC701269621
:100D50000FB6F894DEBF0FBECDBFDF91CF911F91CC
:100D60000F91FF90EF9019940F931F93CF93DF9300
:100D700000D000D0CDB7DEB78C01DC01ED91FC9145
:100D80000284F385E02D2D833E834B835C8369834E
:100D90007A831995D801ED91FC910484F585E02DB5
:100DA0002D813E814B815C8169817A81C8011995D1
:100DB000D801ED91FC910688F789E02DC8012696AF
:100DC0000FB6F894DEBF0FBECDBFDF91CF911F915C
:100DD0000F911994EF92FF920F931F93DC01ED9105
:100DE000FC910684F785E02D780101E010E019956B
:100DF0001F910F91FF90EF900895EF92FF920F9344
:100E00001F93DC01ED91FC910684F785E02D7801BC
:100E1000890121E030E019951F910F91FF90EF902B
:100E20000895DC019C96ED91FC919D979081D1965F
:100E30008C91892B8083089585ED8093BC008091EF
:100E4000BC0084FDFCCF10925E0308954091EA023D
:100E5000262F30E0240F311D21323105DCF42091A2
:100E60005E032430C9F4FC0180E090E0861758F45A
:100E70003091EA022191DC01A853BD4FA30FB11DAF
:100E80002C930196F3CF8091EA02680F6093EA02F7
:100E900080E0089581E0089582E008950895E0914A
:100EA0004B0680914A06E81730F4F0E0E85EFC4F0C
:100EB000808190E008958FEF9FEF089590914B0609
:100EC00080914A06981750F4E92FF0E0E85EFC4F55
:100ED000208130E09F5F90934B0602C02FEF3FEFE1
:100EE000C901089580914A0690E020914B06821B2B
:100EF00091090895CF92DF92EF92FF920F931F9383
:100F0000CF93DF937C01262F972F8A0180915F0377
:100F1000882391F0C62FD72F6E01C40ED51ECC1595
:100F2000DD0569F06991D701ED91FC910190F081A7
:100F3000E02DC7011995F3CF642F822F87DFC801F9
:100F4000DF91CF911F910F91FF90EF90DF90CF90A5
:100F50000895CF93DF931F92CDB7DEB769832091B9
:100F60005F032223D1F020918203203240F021E060
:100F700030E0FC013383228380E090E014C0809154
:100F80006003E82FF0E0EF59FC4F998190838F5F69
:100F9000809360038093820304C061E0CE010196D8
:100FA00055DF81E090E00F90DF91CF910895089593
:100FB00080E090E00895FC0181A187FF1EC0428D72
:100FC000538D648D758D20E080E092E1AAE7B0E05A
:100FD000481759076A077B0740F4B695A795979578
:100FE00087952F5F2630A1F727E091E09227892F80
:100FF000806A869591708CBD9DBDA4A5B5A59C9178
:1010000081A9809589238C9308952F923F924F92C6
:101010005F926F927F928F929F92AF92BF92CF9288
:10102000DF92EF92FF920F931F93CF93DF9300D045
:1010300000D0CDB7DEB79E838D834B013A016901A5
:10104000802F21E030E029014C185D082224332450
:101050002C183D08220C331CAA24A394B12C01E0C7
:1010600010E0982F94709983A82FA270AA83B82FAC
:10107000B870BB8381708C83C50101978C159D0569
:101080000CF0A6C057FC08C0E1E0CE1AD108F2E08F
:101090002F0E311C420C531C0E5F1F4F400E511E71
:1010A0008981882311F1AD81BE81ED91FC91119769
:1010B0000484F585E02D9701A3014C0D5D1DB5015C
:1010C000680D791DCD011995AD81BE81ED91FC9121
:1010D00011970484F585E02D9701A501460D571D54
:1010E000B4016C0D7D1DCD011995BA81BB2311F1A1
:1010F000AD81BE81ED91FC9111970484F585E02DC1
:101100009701A3014C195D09B501680D791DCD0149
:101110001995AD81BE81ED91FC9111970484F585FF
:10112000E02D9701A3014A195B09B4016C0D7D1DE7
:10113000CD011995BB81BB2311F1AD81BE81ED912C
:10114000FC9111970484F585E02D9701A501460DCA
:10115000571DB4016C197D09CD011995AD81BE8172
:10116000ED91FC9111970484F585E02D9701A30181
:101170004C0D5D1DB4016A197B09CD011995BC8127
:10118000BB2311F1AD81BE81ED91FC9111970484D7
:10119000F585E02D9701A3014A195B09B4016C198B
:1011A0007D09CD011995AD81BE81ED91FC9111971D
:1011B0000484F585E02D9701A3014C195D09B40164
:1011C0006A197B09CD011995BFEFAB1ABB0A54CF41
:1011D00026960FB6F894DEBF0FBECDBFDF91CF913C
:1011E0001F910F91FF90EF90DF90CF90BF90AF9045
:1011F0009F908F907F906F905F904F903F902F9037
:101200000895FC0181A187FF05C06EBD0DB407FEE6
:10121000FDCF089528E030E090E8A4A1B5A186A50F
:10122000492F462319F04C91842B03C04C91809593
:1012300084238C93A0A5B1A54C9180A9809584238B
:101240008C93A0A5B1A54C9180A9842B8C939695E5
:101250002150310911F70895CF93DF93EC01EAA5EE
:10126000FBA590818AA9809589238083CE01C9DF5F
:10127000EAA5FBA590818AA9892B8083DF91CF9174
:1012800008958F929F92AF92BF92CF92DF92EF928A
:10129000FF920F931F93CF93DF93EC01490181E0FD
:1012A000881A9108860E971EC401A0E0B0E04B0199
:1012B000A12CB12C540199248824882A992AAA2A7D
:1012C000BB2A680181E0C81AD108C40ED51EC60128
:1012D000A0E0B0E06A01E12CF12C7601DD24CC2401
:1012E000C82AD92AEA2AFB2A6AE2CE01B5DF29A157
:1012F0006B2D77278827992727FF18C06EBD0DB45F
:1013000007FEFDCFC501AA27BB278EBD0DB407FE82
:10131000FDCFBB27AB2D9A2D892D8EBD0DB407FEB9
:10132000FDCF8EBC0DB407FEFDCF10C0CE0169DF2E
:10133000B50188279927CE0164DF99278B2D7A2D57
:10134000692DCE015EDF682DCE015BDF6BE2CE0141
:1013500083DF29A16F2D77278827992727FF18C0BA
:101360006EBD0DB407FEFDCFC701AA27BB278EBDFA
:101370000DB407FEFDCFBB27AF2D9E2D8D2D8EBD4D
:101380000DB407FEFDCFCEBC0DB407FEFDCF10C0DF
:10139000CE0137DFB70188279927CE0132DF9927A1
:1013A0008F2D7E2D6D2DCE012CDF6C2DCE0129DFF2
:1013B0006CE2CE01DF91CF911F910F91FF90EF90E2
:1013C000DF90CF90BF90AF909F908F9045CF4F927E
:1013D0005F926F927F928F929F92AF92BF92CF92C5
:1013E000DF92EF92FF920F931F93CF93DF935C01F5
:1013F000FB01E9014701DC0118962D913C911997F9
:10140000621773070CF060C01A968D919C911B9720
:10141000481759070CF058C06B01CC0EDD1ED601E1
:1014200011977A01E00EF11EB70161507109B7FD05
:101430004BC077FD49C0F7FF03C0E601E0E0F0E0F4
:1014400057FF03C0870140E050E0A217B3071CF02C
:10145000E901CE1BDF0B681779071CF08C01041B18
:10146000150B9E01D8010E9416246B017C01BF015F
:10147000C50107DF26013701F50181A187FF13C0F0
:101480004114510461047104F9F09EBC0DB407FECF
:10149000FDCF8EBC0DB407FEFDCFF1E04F1A510811
:1014A00061087108EDCF411451046104710461F0C9
:1014B000692DC501A6DE682DC501A3DE81E0481AAD
:1014C000510861087108EFCFDF91CF911F910F9103
:1014D000FF90EF90DF90CF90BF90AF909F908F9054
:1014E0007F906F905F904F900895EF92FF920F93CF
:1014F0001F93CF93DF93EC01CB0177FD2DC068855F
:1015000079858617970744F557FD26C06A857B8540
:10151000461757070CF5E32EF22EBC0101E010E050
:1015200021E030E0CE01ADDE89A187FF09C0EEBC2D
:101530000DB407FEFDCFFEBC0DB407FEFDCF0CC001
:101540006E2DCE015EDE6F2DCE01DF91CF911F910A
:101550000F91FF90EF9055CEDF91CF911F910F919A
:10156000FF90EF9008950F931F93CF93DF931F92F7
:10157000CDB7DEB78C01DC01ED91FC910284F385DF
:10158000E02D698319956981611102C060E201C093
:1015900061E2C80161DED801ED91FC910688F7890E
:1015A000E02DC8010F90DF91CF911F910F911994F9
:1015B0001F93CF93DF93EC0163706D8B6230C1F0AA
:1015C000633001F1613051F080EF90E099878887B6
:1015D00080E491E09B878A8718E41DC080E491E055
:1015E0009987888780EF90E09B878A8718E213C0ED
:1015F00080EF90E09987888780E491E09B878A87D5
:1016000018E809C080E491E09987888780EF90E02E
:101610009B878A8718EEE881F9810284F385E02DA3
:10162000CE01199566E3CE0117DE612FCE01E9DD0B
:10163000E881F9810688F789E02DCE01DF91CF910D
:101640001F9119941F920F920FB60F9211240BB68F
:101650000F922F933F934F935F936F937F938F934B
:101660009F93AF93BF93EF93FF938091B900887FCF
:10167000803609F49CC068F5883209F45BC090F4A8
:10168000803109F454C038F4882309F4F6C0883056
:1016900009F44DC0F5C0883109F44CC0803209F41A
:1016A0005DC0EEC0803409F468C048F4803309F4AA
:1016B00055C0883309F0E4C080935C03D8C08035FE
:1016C00009F44FC0883509F45DC0883409F0D8C0EA
:1016D000D6C0883909F4C7C0A8F4883709F467C0B0
:1016E00038F4883609F463C0803709F460C0C8C094
:1016F000883809F4B8C0803909F45FC0803809F02F
:10170000BFC05BC0803B09F486C038F4803A09F45E
:1017100066C0883A09F47FC0B3C0803C09F4A7C012
:10172000883C09F4A4C0883B09F48AC0A9C0809110
:10173000390310C090915B0380915A03981770F59C
:10174000E0915B0381E08E0F80935B03F0E0E65C49
:10175000FC4F80818093BB0085EC86C080935C0346
:101760008EC0E0915B0381E08E0F80935B038091DC
:10177000BB00F0E0E65CFC4F808390915B038091BE
:101780005A036EC0E0915B0381E08E0F80935B0390
:101790008091BB00F0E0E65CFC4F808380915D03AC
:1017A00081116DC081E08093380384EA61C083E0D9
:1017B00080935E0310920E03CFCF80910E03803290
:1017C00008F051C0E0910E0381E08E0F80930E036C
:1017D0008091BB00F0E0E251FD4F8083BDCF85ECEE
:1017E0008093BC0010925E0380910E03803230F42F
:1017F000E0910E03F0E0E251FD4F108260910E0384
:1018000070E0E091EC02F091ED028EEE92E019951D
:1018100010920E0335C084E080935E031092EB02B9
:101820001092EA02E091E802F091E90219958091A4
:10183000EA02811105C081E08093EA021092C80299
:10184000E091EB0281E08E0F8093EB02F0E0E85331
:10185000FD4F80818093BB009091EB028091EA0262
:10186000981708F479CF85E88093BC0009C085EC0F
:101870008093BC0010925E0303C010925C03DCDA1C
:10188000FF91EF91BF91AF919F918F917F916F9158
:101890005F914F913F912F910F900BBE0F900FBE14
:1018A0000F901F901895EF92FF920F931F93E12CCA
:1018B000F12C0EE010E020E530E044E650E068E76F
:1018C00070E084E794E09ED9E4E7F4E088E790E0F4
:1018D0009587848784E690E09787868780E29DEFEE
:1018E000938B828B918B808B82E0848B4091B802AA
:1018F0005091B9026091BA027091BB02CF010E946F
:101900000E1664EB72E084E794E01F910F91FF9054
:10191000EF900C94A517EF92FF920F931F93E12C79
:10192000F12C0EE010E020E530E049E150E068E7FE
:1019300070E084E794E066D9E4E7F4E088E790E0BB
:101940009587848789E190E0978786878FE190E08B
:10195000938B828B918B808B82E0848B40910002F1
:10196000509101026091020270910302CF010E9426
:101970000E1664EB72E084E794E01F910F91FF90E4
:10198000EF900C94A5178091BC02882319F080E198
:1019900096E002C083EF95E02AC7FC01538D448D89
:1019A000252F30E0842F90E0821B930B541710F00A
:1019B000CF96089501970895FC01918D828D981717
:1019C00061F0828DDF01A80FB11D5D968C91928D23
:1019D0009F5F9F73928F90E008958FEF9FEF089520
:1019E000FC01918D828D981731F0828DE80FF11DE9
:1019F000858D90E008958FEF9FEF0895FC01918D04
:101A0000228D892F90E0805C9F4F821B91098F73FC
:101A10009927089583E893E0F1DF21E0892B09F409
:101A200020E0822F0895FC01848DDF01A80FB11DF5
:101A3000A35ABF4F2C91848D90E001968F73992704
:101A4000848FA689B7892C93A089B1898C918064F1
:101A50008C93938D848D981306C00288F389E02DB2
:101A600080818F7D80830895EF92FF920F931F9363
:101A7000CF93DF93EC0181E0888F9B8D8C8D981341
:101A800005C0E889F989808185FD23C0F62E0B8D7C
:101A900010E00F5F1F4F0F731127E02E8C8DE8129F
:101AA0000BC00FB607FCFACFE889F989808185FF62
:101AB000F5CFCE01B8DFF2CF8B8DFE01E80FF11D1F
:101AC000E35AFF4FF0820B8FEA89FB8980818062A5
:101AD00007C0EE89FF896083E889F9898081806485
:101AE000808381E090E0DF91CF911F910F91FF9073
:101AF000EF900895CF93DF93EC01888D8823C1F098
:101B0000EA89FB89808185FD05C0A889B9898C9106
:101B100086FD0EC00FB607FCF5CF808185FFF2CFA2
:101B2000A889B9898C9185FFEDCFCE017CDFE8CF04
:101B3000DF91CF91089580E090E0892B19F06ADF62
:101B4000811125C080E090E0892B41F080E090E099
:101B5000892B21F00E94000081111CC080E090E0E0
:101B6000892B41F080E090E0892B21F00E94000059
:101B7000811113C080E090E0892BA1F080E090E01B
:101B8000892B81F00E94000081110AC008950E94F3
:101B90000000D8CF0E940000E1CF0E940000EACFF1
:101BA0000C94000008953FB7F8948091140390912D
:101BB0001503A0911603B091170326B5A89B05C085
:101BC0002F3F19F00196A11DB11D3FBFBA2FA92FBC
:101BD000982F8827820F911DA11DB11DBC01CD0139
:101BE00042E0660F771F881F991F4A95D1F7089525
:101BF0000895FC016370658B84819581268137810E
:101C0000613039F0633029F09187808733872287EC
:101C10000895318720879387828708952F923F9276
:101C20004F925F926F927F928F929F92AF92BF92EC
:101C3000CF92DF92EF92FF920F931F93CF93DF9398
:101C4000CDB7DEB76C970FB6F894DEBF0FBECDBF31
:101C50009C8F8B8F5B011A011F830E833701C98212
:101C6000DC0158964D915C9159974115510509F049
:101C7000E5C018968D919C911997681779070CF01B
:101C8000CAC11A968D919C911B97281639060CF0A3
:101C9000C2C18C2C912CFB0136E0C39EE00DF11DDE
:101CA0001124FB87EA871E161F060CF0B4C1C4017D
:101CB00033E0880F991F3A95E1F79D878C87820D55
:101CC000931D181619060CF0A6C157968C91811118
:101CD00003C0203B08F02F5FAB8DBC8DED91FC91D4
:101CE00011970284F385E02DCD012A8F19952A8D55
:101CF000B5E02B9F90011124F5013596FF87EE8703
:101D0000BB82AA822501A9014A195B09598B488B1C
:101D1000C10108969B8B8A8BE889F989E40DF51D32
:101D2000EE5DFE4F9491988761013D822C82A885DB
:101D3000A0FF13C0AB8DBC8DED91FC91B981B1308A
:101D400031F40484F585E02D2E813F8116C0068490
:101D5000F785E02DEE80FF801AC0EE81FF816E16C0
:101D60007F06F1F0AB8DBC8DED91FC91B981B13066
:101D700051F40484F585E02D9301A601B2018B8D09
:101D80009C8D19950DC00684F785E02D73018401A3
:101D900094014C815D816A817B818B8D9C8D19952D
:101DA000E885E695E887FFEFCF1ADF0A2C813D81B1
:101DB000280D391D3D832C834A895B89C416D506BD
:101DC00009F0B5CF5FEF451A550A8A819B81880DCE
:101DD000991D9B838A83AE85BF854A165B0609F0F1
:101DE0009BCFEE81FF816E167F0609F4F2C0EB8D6A
:101DF000FC8DA081B181F981F13079F4B5016B5F7F
:101E00007F4F5096ED91FC915197830128E030E08F
:101E1000A1018B8D9C8D1995DCC06A857B85681925
:101E200079091E96ED91FC911F9773010C851D8514
:101E30009401A1018B8D9C8D1995CBC0FA0134962C
:101E40009491329765917491291BCB01B7E02B9F38
:101E5000800D911D1124FA01259134913B8B2A8B21
:101E6000FC01459154915B834A83FC013296C490F6
:101E7000319654915E87329614913196D49089812F
:101E8000823058F0612E012E000C7708AD2D0D2CFC
:101E9000000CBB0BB987A88704C019861886612C73
:101EA000712CAB8DBC8DED91FC9111970284F38563
:101EB000E02DCD011995B9818B2E912C689CC00124
:101EC000699C900D789C900D1124FC01EA0DFB1D7E
:101ED000FD87EC871C82712C612CE12F110FFF0B09
:101EE00095012E0F3F1F3B872A87AC0CB11CA50123
:101EF0004E0F5F1F5F8B4E8BC1018D0D911DD7FC67
:101F00009A95998F888F4E85641608F062C0862D49
:101F100090E048855985480F591F489D9001499D7B
:101F2000300D589D300D1124D901A20DB31DB98B70
:101F3000A88BAA84BB844C845D84DC80BA85DB1AC0
:101F4000E88DF98DE80FF91FFD8BEC8B8D2D8A0D37
:101F50002E893F89A216B306B9F1877061F48A8190
:101F60009B810196EA89FB89AA81BB81EA0FFB1F4D
:101F700074909B838A8377FE20C0AB8DBC8DED91DE
:101F8000FC91B981B13061F40484F585E02D2E8196
:101F90003F814C895D89B5018B8D9C8D19950DC054
:101FA0000684F785E02DEE80FF8084019401488946
:101FB0005989B2018B8D9C8D1995770CEFEFAE1A74
:101FC000BE0A480C591CC2CF3C813C0D3C83639433
:101FD0009ACFAB8DBC8DED91FC9111970688F78956
:101FE000E02DCD016C960FB6F894DEBF0FBECDBFCD
:101FF000DF91CF911F910F91FF90EF90DF90CF90E5
:10200000BF90AF909F908F907F906F905F904F9018
:102010003F902F9019946C960FB6F894DEBF0FBEC8
:10202000CDBFDF91CF911F910F91FF90EF90DF9087
:10203000CF90BF90AF909F908F907F906F905F9068
:102040004F903F902F900895AF92BF92CF92EF9212
:10205000FF920F931F93CF93DF93EC01262F888D70
:10206000998D009709F03FC06A3059F41D861C868F
:102070002C898E859F8538E0239F800D911D11242A
:1020800040C06D3009F4A8C08E898823C1F03C8916
:102090008C859D8546E0349F800D911D11244885D7
:1020A0005985481759075CF41D861C868E859F85C7
:1020B00048E0349F800D911D11249F878E87EA8808
:1020C000FB88088919894E855F856C857D85CC885C
:1020D000CE01A4DD2C898C859D8536E0239F800D63
:1020E000911D112442C06A3079F41D861C862C890A
:1020F000FC013696E4918E859F852E9F800D911D63
:1021000011249F878E8768C06D3009F465C0FC017B
:1021100034963491631708F45FC03196E491E61762
:1021200008F45AC0FC013296A590B490462F50E0B6
:10213000431B510937E0349FB001359F700D1124C6
:10214000A60EB71EF501329634913196E4913323F1
:1021500011F0E1110DC0F5013496E4912C898C85C4
:102160009D85E29F800D911D11249D878C8734C031
:10217000F501359644915E89552311F16C89E32F61
:10218000F0E0E40FF11D47FDFA956E9FD0016F9FBF
:10219000B00D11244C855D854A0F5B1FE885F985DC
:1021A000E417F5076CF41D861C86FC013696E49155
:1021B0008E859F856E9F800D911D11249F878E8730
:1021C000EA88FB88088919894E855F856C857D853D
:1021D000CC88CE0123DDBFCF81E090E0DF91CF91AD
:1021E0001F910F91FF90EF90CF90BF90AF90089507
:1021F0006F927F928F929F92AF92BF92CF92DF9217
:10220000EF92FF920F931F93CF93DF93EC014B015B
:102210005A0169013801E881F9810284F385E02DD2
:102220001995E881F9810288F389E02D87019601EB
:10223000A501B401CE011995E881F981A501460DEA
:10224000571D415051090288F389E02D9601B401D0
:10225000CE011995E881F9810088F189E02D93017B
:10226000A501B401CE011995E881F981C80CD91CEA
:10227000B601615071090088F189E02D9301A50133
:10228000CE011995E881F9810688F789E02DCE0104
:10229000DF91CF911F910F91FF90EF90DF90CF9042
:1022A000BF90AF909F908F907F906F9019940E94F5
:1022B00022241F920F920FB60F9211240BB60F9289
:1022C0002F933F934F935F936F937F938F939F933E
:1022D000AF93BF93EF93FF9383E893E0A4DBFF9169
:1022E000EF91BF91AF919F918F917F916F915F918E
:1022F0004F913F912F910F900BBE0F900FBE0F90FB
:102300001F9018951F920F920FB60F9211240BB6C3
:102310000F922F938F939F93EF93FF93E0919303EB
:10232000F09194038081E0919903F0919A0382FDEA
:1023300012C0908180919C038F5F8F7320919D03C9
:10234000821751F0E0919C03F0E0ED57FC4F958F20
:1023500080939C0301C08081FF91EF919F918F91A9
:102360002F910F900BBE0F900FBE0F901F901895DE
:10237000362F90E0FC01EE5DF94F4491FC01E859E5
:10238000F94F2491FC01E853F94F9491992309F4F2
:102390006BC0442309F455C050E0FA013197E23193
:1023A000F10508F04EC08827EE58FF4F8F4F0C9470
:1023B0000E24809180008F7707C0809180008F7DF0
:1023C00003C080918000877F809380003AC084B5ED
:1023D0008F7702C084B58F7D84BD33C08091B000FB
:1023E0008F7703C08091B0008F7D8093B00029C0AB
:1023F000809190008F7707C0809190008F7D03C0FF
:1024000080919000877F809390001BC08091A000F6
:102410008F7707C08091A0008F7D03C08091A000BE
:10242000877F8093A0000DC0809120018F7707C027
:10243000809120018F7D03C080912001877F809350
:102440002001E92FF0E0EE0FFF1FE255F94FA591B3
:10245000B4918FB7F894EC91311103C020952E23DD
:1024600001C02E2B2C938FBF0895CF93DF9390E064
:10247000FC01E859F94F2491FC01E853F94F84918C
:10248000882361F190E0880F991FFC01E85FFE4FFF
:10249000C591D491FC01E255F94FA591B491611118
:1024A00009C09FB7F8948881209582238883EC9196
:1024B0002E230BC0623061F49FB7F8943881822FCD
:1024C000809583238883EC912E2B2C939FBF06C08D
:1024D0008FB7F894E8812E2B28838FBFDF91CF919F
:1024E00008958F929F92AF92BF92CF92DF92EF9218
:1024F000FF926B017C0157DB4B015C01C114D104DD
:10250000E104F104E9F04FDBDC01CB018819990902
:10251000AA09BB09883E9340A105B10578F321E0E3
:10252000C21AD108E108F10888EE880E83E0981EEF
:10253000A11CB11CC114D104E104F10421F7DECFC8
:10254000FF90EF90DF90CF90BF90AF909F908F90D3
:1025500008952FB7F8946091100370911103809142
:102560001203909113032FBF08951F920F920FB67D
:102570000F9211242F933F938F939F93AF93BF9309
:102580008091100390911103A0911203B091130355
:1025900030910F0323E0230F2D3720F40196A11D66
:1025A000B11D05C026E8230F0296A11DB11D209381
:1025B0000F038093100390931103A0931203B09321
:1025C00013038091140390911503A0911603B09109
:1025D00017030196A11DB11D809314039093150359
:1025E000A0931603B0931703BF91AF919F918F9162
:1025F0003F912F910F900FBE0F901F901895FC01E7
:10260000838D882319F0948D81E089270895FC013A
:102610002281338162177307A4F086819781820F2C
:10262000931F6817790768F424813581421753078F
:1026300044F080859185280F391F81E042175307A8
:1026400008F080E008952F923F924F925F926F9230
:102650007F928F929F92AF92BF92CF92DF92EF9232
:10266000FF920F931F93CF93DF93CDB7DEB72897D9
:102670000FB6F894DEBF0FBECDBF5C013B014A012F
:1026800038872F83FC82EB8281E090E02C01421A94
:10269000530AC9019195819591099C01220F331F1D
:1026A0003A832983170133E0230E311CEE24E3948F
:1026B000F12C802F81708D8302700E83C7010197EA
:1026C000EF81F8858E179F070CF078C057FC0CC07F
:1026D000AF81B8851197B887AF83E981FA813296C7
:1026E000FA83E9834E0E5F1EC701880F991F01967A
:1026F000480E591EFD81FF2359F1D501ED91FC9142
:102700002F813885220F331F2F5F3F4F8B819C8194
:10271000280F391F0088F189E02D8601A401AF81BF
:10272000B8854A1B5B0BB701660D771DC50119956E
:10273000D501ED91FC910088F189E02D9101A40172
:102740004E195F096F817885660D771DC501199552
:10275000BE81BB2361F1D501ED91FC912F813885BC
:10276000220F331F2F5F3F4F8B819C81280F391F12
:102770000088F189E02D8601A401AF81B8854A1B4C
:102780005B0BB3016E197F09C5011995D501ED9158
:10279000FC910088F189E02D9101A4014E195F0997
:1027A000B3018F819885681B790BC50119959FEF3F
:1027B000E91AF90AA2E02A0E311C80CF28960FB63A
:1027C000F894DEBF0FBECDBFDF91CF911F910F9167
:1027D000FF90EF90DF90CF90BF90AF909F908F9041
:1027E0007F906F905F904F903F902F9008952F9221
:1027F0003F924F925F926F927F928F929F92AF9291
:10280000BF92CF92DF92EF92FF920F931F93CF93DD
:10281000DF93CDB7DEB72C970FB6F894DEBF0FBEAF
:10282000CDBF9C878B87DC011D962D903C901E9719
:102830001B96ED91FC911C97FA83E9831F962D91CD
:102840003C9150973A8729871696CD90DC90179740
:102850001896AD90BC901997CA14DB0410F42601A9
:1028600001C025015694479456944794512CAB854A
:10287000BC8514966D907C9015971296ED91FC9105
:102880001397FC83EB838D909C90D401ED91FC9188
:102890000284F385E02DC4011995882799278419AE
:1028A0009509FC01EE0FFF1FF887EF832B813C8118
:1028B000240D351D3E832D83D401ED91FC912F8194
:1028C00038852C0D3D1D0684F785E02D71018501AD
:1028D000A3016D817E81C4011995EF81F885AE0E4B
:1028E000BF1EF1E0AF1AB108640C751C6B817C81CE
:1028F0006C0D7D1D641975096150710961017501C7
:1029000001E09201A301C4019EDE02E09201A30155
:102910006D817E81C40197DED401ED91FC91068822
:10292000F789E02DC4011995EB85FC85208431845D
:10293000268137813C832B8384809580E280F380DD
:10294000C080D180D601ED91FC910284F385E02D09
:10295000C6011995AB80BC80EF81F885AE0EBF1E15
:102960003701640C751CD601ED91FC910288F38946
:10297000E02D09811A819501A401B301C6011995C1
:10298000F401E20DF31DFE83ED83D601ED91FC9180
:102990004D815E81415051090288F389E02D098102
:1029A0001A819501B301C6011995EF81F8852E0EA4
:1029B0003F1E840C951CD601ED91FC910088F18995
:1029C000E02D09811A819101A401B701C601199571
:1029D000AB80BC80AE0CBF1CD601ED91FC91B50163
:1029E000615071090088F189E02D09811A819101F6
:1029F000A401C6011995E980FA8001E09201A401C1
:102A0000B301C6010E940508A418B508B1E0AB1ACD
:102A1000B108E980FA8002E09201A401B501C60183
:102A20000E9405088D809E8084189508E1E08E1A2A
:102A30009108E980FA8004E09201A401B501C60181
:102A40000E940508E980FA8008E09201A401B30120
:102A5000C6010E940508D601ED91FC910688F78910
:102A6000E02DC6011995EB85FC85F2848085918562
:102A70009695879524813581820F931FF4E0FF9E00
:102A80008019910911246B857C856F5E7F4FDB0176
:102A90000D900020E9F711976D01C61AD70AAB8592
:102AA000BC85ED91FC91119716962D913C9117974D
:102AB0003695279512964D915C911397240F351FEB
:102AC000B3E0FB9EA00111244C9D70014D9DF00CC4
:102AD0005C9DF00C11242E193F09358724879787B8
:102AE000868729853A85338B228B318B208BAB856A
:102AF000BC851A968C91811101C081E0848BEB8595
:102B0000FC85808191812C960FB6F894DEBF0FBEB4
:102B1000CDBFDF91CF911F910F91FF90EF90DF908C
:102B2000CF90BF90AF909F908F907F906F905F906D
:102B30004F903F902F9009C2CF92DF92EF92FF9279
:102B40006B017C01E0919303F091940382E0808318
:102B5000C11481EED806E104F104B1F060E079E03F
:102B60008DE390E0A70196010E94B723DA01C90125
:102B70000197A109B109B695A795979587959C01ED
:102B8000211580E13807B8F0E0919303F0919403A8
:102B9000108260E874E88EE190E0A70196010E943F
:102BA000B723DA01C9010197A109B109B695A79523
:102BB000979587959C01E0918F03F0919003308366
:102BC000E0919103F0919203208310929B03E09196
:102BD0009703F091980386E08083E0919503F0914C
:102BE0009603808180618083E0919503F091960344
:102BF000808188608083E0919503F09196038081C5
:102C000080688083E0919503F091960380818F7DA9
:102C10008083FF90EF90DF90CF900895CF92DF9266
:102C2000EF92FF920F931F93CF93DF9377FF20C014
:102C30006A017B01EC01E881F9810190F081E02DCE
:102C40006DE219958C0144275527BA014C195D098D
:102C50006E097F092AE0CE011ED1800F911FDF91FE
:102C6000CF911F910F91FF90EF90DF90CF9008953B
:102C70002AE0DF91CF911F910F91FF90EF90DF90AD
:102C8000CF9009C12091820390918103213208F0F5
:102C90004AC080915E038111FCCF32E030935E0325
:102CA00031E030935D033FEF30935C0310925B03A0
:102CB00020935A03A1E6B3E04AE353E0FA013E2F22
:102CC000341B321718F43D913193F9CF1092390328
:102CD00020913903990F922B9093390390913803E7
:102CE000913061F410923803909139039093BB00B6
:102CF0009091BC0093FDF8CF95EC01C095EE9093B8
:102D0000BC0090915E039230E1F390915C039F3F91
:102D100079F080915C03803241F080915C038033D4
:102D200031F084E005C081E003C082E001C083E0AF
:102D3000109260031092820310925F0308959091A5
:102D40005E039111FCCF91E090935E0390935D033D
:102D50002FEF20935C0310925B03280F20935A03FC
:102D60009093390390913903906790933903909130
:102D70003803913061F410923803909139039093A5
:102D8000BB009091BC0093FDF8CF95EC01C095EE8F
:102D90009093BC0090915E039130E1F390915B03BE
:102DA000981710F480915B03AAE3B3E028E133E0C5
:102DB000F9019E2F921B981718F49D919193F9CFCA
:102DC0000895CF92DF92EF92FF920F931F93CF93CC
:102DD000DF936C017A018B01C0E0D0E0CE15DF05F6
:102DE00089F0D8016D918D01D601ED91FC91019092
:102DF000F081E02DC6011995892B11F47E0102C0E6
:102E00002196ECCFC701DF91CF911F910F91FF90D9
:102E1000EF90DF90CF900895CF93DF93D1E0D093E0
:102E20005F03C8E3C0938103109260031092820392
:102E3000682F88E694E00E94A90724DFD0935F03FF
:102E4000C0938103109260031092820381E077DFC8
:102E500010924B0680934A0688E694E00E945E0733
:102E6000C82F10DF8C2FDF91CF9108956115710568
:102E700079F0FB0101900020E9F73197AF01461B83
:102E8000570BDC01ED91FC910280F381E02D199448
:102E900080E090E008954F925F926F927F92EF9260
:102EA000FF920F931F93CF93DF93CDB7DEB7A19718
:102EB0000FB6F894DEBF0FBECDBF7C01FA01CB0187
:102EC00019A2223008F42AE08E010F5D1F4F422E16
:102ED000512C612C712CBF01A30192010E94B723D8
:102EE000F901CA01015011096A3014F4605D01C092
:102EF000695CD8016C93232B242B252B61F7B80137
:102F0000C701B4DFA1960FB6F894DEBF0FBECDBFE8
:102F1000DF91CF911F910F91FF90EF907F906F9075
:102F20005F904F9008950F931F93CF93DF93EC0121
:102F30009DDF8C0164E672E0CE0198DF800F911F67
:102F4000DF91CF911F910F91089590CFCF93DF9391
:102F5000CDB7DEB766970FB6F894DEBF0FBECDBF14
:102F6000789484B5826084BD84B5816084BD85B564
:102F7000826085BD85B5816085BD80916E00816070
:102F800080936E0010928100809181008260809316
:102F90008100809181008160809381008091800018
:102FA0008160809380008091B10084608093B10043
:102FB0008091B00081608093B00080919100826028
:102FC0008093910080919100816080939100809125
:102FD00090008160809390008091A1008260809336
:102FE000A1008091A10081608093A1008091A00048
:102FF00081608093A00080912101826080932101F3
:103000008091210181608093210180912001816064
:103010008093200180917A00846080937A0080916F
:103020007A00826080937A0080917A008160809338
:103030007A0080917A00806880937A001092C100B3
:103040001092640410926504109266041092670452
:10305000109222041092230410922404109225044A
:1030600078DA6B017C014B015C0128EB820E2BE0CE
:10307000921EA11CB11C6DDA6C157D058E059F0595
:1030800028F086169706A806B906A8F783E893E005
:10309000909363048093620460E072EC81E090E0BE
:1030A0004BDD57DA60932204709323048093240449
:1030B0009093250465E572E0809162049091630429
:1030C00044DF47DA6B017C014B015C013AE0830E7F
:1030D000911CA11CB11C3DDA6C157D058E059F0568
:1030E00028F086169706A806B906A8F781E080930F
:1030F000360460E874E88EE190E01EDD80E092E145
:10310000AAE7B0E080938E0490938F04A09390047C
:10311000B093910461E080919304A7D960E080911D
:10312000930426D961E0809192049FD961E0809157
:1031300092041ED98091950487FD16C061E08091AC
:10314000960493D960E08091960412D961E0809151
:1031500095048BD961E0809195040AD980919704F8
:1031600087FD02C060E081D98091950487FF2FC060
:103170001FB7F8948091BD02811123C0EDEFF6E0F6
:103180008491EDE9F6E09491E82FF0E0EE0FFF1F57
:10319000E85FFE4FA591B491EC91E92319F461E049
:1031A00085E3E6D861E085E360D98CB580618CBDAC
:1031B0008CB580648CBD61E084E357D961E083E322
:1031C00054D98091BD028F5F8093BD021FBF809153
:1031D000940487FD1DC061E048D961E080919404AA
:1031E000C7D864E670E080E090E07BD960E0809131
:1031F0009404BED864E670E080E090E072D961E0AB
:1032000080919404B5D868EC70E080E090E069D9D2
:1032100084E794E00E94DB076FEE84E794E00E946D
:103220002C0963E084E794E00E94010960E884E7E8
:1032300094E00E94010962E084E794E00E940109A1
:103240006FEC84E794E00E942C0960E084E794E04E
:103250000E94010961EC84E794E00E94010960E3A7
:1032600084E794E00E9401096DEE84E794E00E94F7
:103270002C0964E684E794E00E94010963E084E796
:1032800094E00E94010962E184E794E00E94010950
:1032900061E884E794E00E94010968EE84E794E025
:1032A0000E942C0965E884E794E00E94010960E02F
:1032B00084E794E00E94010968E784E794E00E94B3
:1032C00001096BEC84E794E00E942C0969E384E730
:1032D00094E00E9401096CE284E794E00E940109F5
:1032E00060E084E794E00E94010964E384E794E0ED
:1032F0000E94010962E084E794E00E94010967EFFF
:1033000084E794E00E942C0960E284E794E00E9444
:1033100001096AEE84E794E00E942C0960E084E7EA
:1033200094E00E94010960E084E794E00E940109B2
:1033300060EC84E794E00E942C0963E284E794E067
:103340000E94010961EC84E794E00E942C0960E18D
:1033500084E794E00E94010965EC84E794E00E9410
:103360002C096EE384E794E00E94010968E284E797
:1033700094E00E94010967EC84E794E00E942C0924
:1033800066E884E794E00E94010966E384E794E03C
:103390000E942C0968E484E794E00E94010967E335
:1033A00084E794E00E942C098091950487FF09C06E
:1033B0001EBC0DB407FEFDCF1EBC0DB407FEFDCF35
:1033C0000AC060E084E794E00E94010960E084E7BD
:1033D00094E00E9401096AE384E794E00E942C09CA
:1033E00065E584E794E00E94010961EB84E794E0DD
:1033F0000E942C0960E084E794E00E94010968E1E2
:1034000084E794E00E94010966EB84E794E00E945F
:103410002C0968E084E794E00E94010962E884E7EF
:1034200094E00E94010967E284E794E00E940109A8
:1034300062EF84E794E00E942C0960E084E794E066
:103440000E94010966E284E794E00E942C0961E091
:1034500084E794E00E94010960EE84E794E00E9412
:103460002C096FE084E794E00E94010961E384E79E
:1034700094E00E9401096BE284E794E00E94010954
:103480006CE084E794E00E9401096EE084E794E038
:103490000E94010968E084E794E00E9401096EE45B
:1034A00084E794E00E94010961EF84E794E00E94C0
:1034B000010967E384E794E00E94010967E084E77B
:1034C00094E00E94010960E184E794E00E94010910
:1034D00063E084E794E00E9401096EE084E794E0F1
:1034E0000E94010969E084E794E00E94010960E01C
:1034F00084E794E00E94010961EE84E794E00E9471
:103500002C0960E084E794E00E9401096EE084E702
:1035100094E00E94010964E184E794E00E940109BB
:1035200063E084E794E00E94010961E184E794E0AC
:103530000E94010967E084E794E00E94010961E3C9
:1035400084E794E00E94010961EC84E794E00E9422
:10355000010968E484E794E00E94010968E084E7D7
:1035600094E00E9401096FE084E794E00E94010961
:103570006CE084E794E00E94010961E384E794E051
:103580000E94010966E384E794E00E9401096FE06C
:1035900084E794E00E94010961E184E794E00E94DD
:1035A0002C0968E770E080E090E00E94711269E207
:1035B00084E794E00E942C0968E770E080E090E0E6
:1035C0000E94711284E794E00E94110780EF90E05E
:1035D00090937D0480937C0480E491E090937F0439
:1035E00080937E0410924B0610924A06109260035C
:1035F0001092820310925E0311E010935D0310920B
:10360000380361E084E10E94B81161E085E10E9425
:10361000B8118091B9008E7F8093B9008091B90074
:103620008D7F8093B90088E48093B80085E480930F
:10363000BC0010935F0388E38093810310926003C2
:103640001092820360E888E694E00E94A90768E28D
:1036500088E694E00E94A90715DB88EADDDB81316A
:1036600011F483EAD9DB68EC662E712C7092300677
:1036700060922F06109232061092310608E710E091
:1036800010933406009333061093360600933506E4
:103690008FEE93E0909339068093380690933B0623
:1036A00080933A06AA24AA94BA2CB0923D06A0921E
:1036B0003C06E2E04E2E40923706F4E7CF2EF4E0CF
:1036C000DF2ED0922E06C0922D0689E0E7E6F2E0CA
:1036D000AEE3B6E001900D928A95E1F710921306E1
:1036E00010921206109215061092140610931706E7
:1036F00000931606109319060093180680EE97E0C3
:1037000090931C0680931B0690931E0680931D06C3
:10371000B0922006A0921F06A5E0FA2EF0921A069B
:10372000D0921106C092100649E050E061E772E0C5
:1037300081E296E00E9426241092F6051092F5058B
:103740001092F8051092F7051093FA050093F90509
:103750001093FC050093FB0580E098EF9093FF0524
:103760008093FE059093010680930006B0920306B5
:10377000A0920206F092FD05D092F405C092F305E6
:1037800049E050E064E772E084E096E00E9426247D
:103790001092D9051092D805BCE88B2E912C9092EE
:1037A000DB058092DA0508E210E01093DD05009356
:1037B000DC051093DF050093DE058FEEE82E8BE726
:1037C000F82EF092E205E092E105F092E405E09235
:1037D000E305B092E605A092E50593E0592E5092DC
:1037E000E005D092D705C092D60549E050E068E7E1
:1037F00072E087EE95E00E94262422E3222E312CEF
:103800003092BC052092BB059092BE058092BD050A
:103810001093C0050093BF051093C2050093C10526
:10382000F092C505E092C405F092C705E092C60586
:10383000B092C905A092C8055092C305D092BA05AE
:10384000C092B90549E050E06AE772E08AEC95E081
:10385000FDD724E630E030939F0520939E0590929B
:10386000A1058092A0051093A3050093A2051093D3
:10387000A5050093A405F092A805E092A705F09293
:10388000AA05E092A905B092AC05A092AB055092B2
:10389000A605D0929D05C0929C0549E050E06CE7DA
:1038A00072E08DEA95E02D8B3E8BD0D746E950E053
:1038B0005093820540938105909284058092830500
:1038C000109386050093850510938805009387055E
:1038D000F0928B05E0928A05F0928D05E0928C05BE
:1038E000B0928F05A0928E0550928905D0928005E6
:1038F000C0927F0549E050E06EE772E080E995E014
:10390000A5D77092650560926405909267058092D4
:103910006605109369050093680510936B05009385
:103920006A05F0926E05E0926D05F0927005E092E6
:103930006F05B0927205A092710550926C05D092FD
:103940006305C092620549E050E060E872E083E7F9
:1039500095E07CD78AEF90E09093480580934705E7
:1039600090924A058092490510934C0500934B05AF
:1039700010934E0500934D05F0925105E0925005CD
:10398000F0925305E0925205B0925505A09254056D
:1039900050924F05D0924605C092450549E050E04F
:1039A00062E872E086E595E051D710922B051092FF
:1039B0002A053EEB832E912C90922D0580922C05AA
:1039C00010932F0500932E051093310500933005B9
:1039D000F0923405E0923305F0923605E092350519
:1039E000B0923805A092370550923205D092290541
:1039F000C092280549E050E064E872E089E395E070
:103A000025D730920E0520920D05909210058092D8
:103A10000F051093120500931105109314050093E0
:103A20001305F0921705E0921605F0921905E09241
:103A30001805B0921B05A0921A0550921505D09258
:103A40000C05C0920B0549E050E066E872E08CE19D
:103A500095E0FCD62D893E893093F1042093F00443
:103A60009092F3048092F2041093F5040093F4040E
:103A70001093F7040093F604F092FA04E092F9042C
:103A8000F092FC04E092FB04B092FE04A092FD04CC
:103A90005092F804D092EF04C092EE0449E050E056
:103AA00068E872E08FEF94E0D1D686E990E09093D9
:103AB000D4048093D3049092D6048092D5041093BA
:103AC000D8040093D7041093DA040093D904F09239
:103AD000DD04E092DC04F092DF04E092DE04B092B8
:103AE000E104A092E0045092DB04D092D204C09290
:103AF000D10449E050E06AE872E082EE94E0A6D694
:103B000080EF90E09093B7048093B6047092B9046C
:103B10006092B80440E5E42EF12CF092BB04E092F0
:103B2000BA041093BD040093BC0480E098E790931E
:103B3000C0048093BF049093C2048093C104B092E8
:103B4000C404A092C3044092BE04D092B504C092B3
:103B5000B40449E050E06CE872E085EC94E076D67D
:103B600061E0C6010E94D80A60E070E0C6010E94D0
:103B700030048DE296E00E94F7130E94C30C02E825
:103B800010E0109381040093800485E090E090930E
:103B90008304809382048FE190E090938704809364
:103BA000860490938504809384044092880463E99A
:103BB00072E0C601CAD90E948B0C86ED95E00E9486
:103BC000F71389EB95E00E94F7138CE995E00E94CA
:103BD000F7138FE795E00E94F71382E695E00E94C5
:103BE000F71385E495E00E94F71388E295E00E94C0
:103BF000F7138BE095E00E94F7138EEE94E00E949D
:103C0000F71381ED94E00E94F71384EB94E00E9497
:103C1000F7131093810400938004F0928304E092E0
:103C2000820480E29DEF90938704809386049093B2
:103C3000850480938404409288046AE972E0C60196
:103C400084D90E94530C54EF452E55245394612C73
:103C5000712CFF24F39468E3E62EDE0111966D01CA
:103C600070E1372E3A0E0E94A912672B682B692B40
:103C700041F40E94A912623071058105910508F492
:103C800009C10E94A9126093C4027093C502809377
:103C9000C6029093C7020091C0021091C102209108
:103CA000C2023091C302601771078207930740F484
:103CB0006093C0027093C1028093C2029093C302CA
:103CC0000091C0021091C1022091C2023091C30242
:103CD0004B015C01801A910AA20AB30A9501840182
:103CE0000A3F11052105310508F4D4C06093C002D4
:103CF0007093C1028093C2029093C30240922E043B
:103D000050922F0460923004709231041092320469
:103D100010923304109234041092350480912604DA
:103D200090912704A0912804B091290480932A043B
:103D300090932B04A0932C04B0932D040E94A912FD
:103D40006093260470932704809328049093290499
:103D50000E94A91260932204709323048093240488
:103D6000909325040E94A9124B015C0160EA72E065
:103D70008091620490916304E8D82AE041E050E029
:103D800060E070E0809162049091630484D867EAF7
:103D900072E08091620490916304D7D82AE0B50163
:103DA000A401809162049091630475D869EA72E07D
:103DB0008091620490916304C8D880912604909108
:103DC0002704A0912804B0912904B501A401481B3F
:103DD000590B6A0B7B0B2AE080916204909163047B
:103DE0005AD869EA72E08091620490916304ADD878
:103DF0004091260450912704609128047091290471
:103E000080912A0490912B04A0912C04B0912D0450
:103E1000481B590B6A0B7B0B2AE08091620490913E
:103E2000630439D86BEA72E0809162049091630474
:103E30008CD80E94A912AB01BC012AE080916204D7
:103E40009091630428D86DEA72E0809162049091A9
:103E5000630469D80E94A9124B015C019B01AC016B
:103E60002B5F3F4F4F4F5F4F298B3A8B4B8B5C8BB8
:103E70000E94A912681579058A059B0508F07FC183
:103E80000E94A9126093260470932704809328044B
:103E90009093290482E00E940C178150823008F030
:103EA00079C1F0925F03E092810310926003109257
:103EB000820360E088E694E00E94A9070E9442160F
:103EC000F0925F03E09281031092600310928203EC
:103ED00080E20E949F1610924B0680934A0686014C
:103EE00088E694E00E945E07D8018D938D013A1216
:103EF000F7CF0E9442168B81833018F48093A70479
:103F000002C01092A7048091A704882309F444C03A
:103F10000C810F7010E0102F00278D81082B10935B
:103F2000A9040093A8048E81A82FAF70B0E0BA2F27
:103F3000AA279F81A92BB093AD04A093AC0490E075
:103F400024E0959587952A95E1F79093B1048093A5
:103F5000B0048A858F7090E0982F88272B85822B5C
:103F60009093AB048093AA042C85822F8F7090E0ED
:103F7000982F88273D85832B9093AF048093AE04C0
:103F8000822F90E054E0959587955A95E1F79093AC
:103F9000B3048093B20404C0A0E0B0E000E010E0FD
:103FA00020EC3EEF4FEF5FEF20D420E431E040E023
:103FB00050E0FFD349015A01B0E48B0EB1E09B1EE3
:103FC000A11CB11CA801B40180E196E00E94071376
:103FD000882339F080912B0680932C06F0922B06D3
:103FE000C2C0A801B40183EF95E00E9407138823A3
:103FF00039F080910E0680930F06F0920E06B3C042
:10400000A801B4018DE296E00E940713882339F0DD
:104010008091480680934906F0924806A4C0A80102
:10402000B40186ED95E00E940713882339F0809152
:10403000F1058093F205F092F10595C0A801B40155
:1040400089EB95E00E940713882339F08091D4050D
:104050008093D505F092D40586C0A801B4018CE9FF
:1040600095E00E940713882339F08091B70580936B
:10407000B805F092B70577C0A801B4018FE795E0C5
:104080000E940713882339F080919A0580939B053D
:10409000F0929A0568C0A801B40182E695E00E94FA
:1040A0000713882339F080917D0580937E05F09277
:1040B0007D0559C0A801B40185E495E00E9407136D
:1040C000882339F08091600580936105F092600546
:1040D0004AC0A801B40188E295E00E940713882332
:1040E00039F08091430580934405F09243053BC02D
:1040F000A801B4018BE095E00E940713882339F0F2
:104100008091260580932705F09226052CC0A801F2
:10411000B4018EEE94E00E940713882339F0809159
:10412000090580930A05F09209051DC0A801B40194
:1041300081ED94E00E940713882339F08091EC040C
:104140008093ED04F092EC040EC0A801B40184EB5E
:1041500094E00E940713882331F08091CF0480936C
:10416000D004F092CF0490912B068091BC02911163
:1041700066C090912C06992309F461C068C0298912
:104180003A894B895C89261737074807590708F091
:104190006FCE76CE80912B0680932C0610922B0644
:1041A00080910E0680930F0610920E0680914806AD
:1041B00080934906109248068091F1058093F2059C
:1041C0001092F1058091D4058093D5051092D40505
:1041D0008091B7058093B8051092B70580919A0534
:1041E00080939B0510929A0580917D0580937E05B2
:1041F00010927D05809160058093610510926005A5
:1042000080914305809344051092430580912605D3
:1042100080932705109226058091090580930A0551
:10422000109209058091EC048093ED041092EC0447
:104230008091CF048093D0041092CF0494CF9091BA
:104240000E06911112C090910F06992371F08F25DF
:104250008093BC020E94C30C1092BF021092BE0257
:10426000F09204020E949B0DFECC882309F447C003
:10427000809104024091BE025091BF02052E000CB5
:10428000660B770B8823C9F083E893E00E940E1633
:1042900064E672E083E893E00E9436178091BE02E4
:1042A0009091BF0201969093BF028093BE02843624
:1042B0009105D1F41092040217C083E893E00E94A4
:1042C0000E1664E672E083E893E00E943617809150
:1042D000BE029091BF0201979093BF028093BE02ED
:1042E000892B11F4F0920402609100027091010296
:1042F00080910202909103020E947112B3CF8DE26D
:1043000096E00E94FF12882399F08091B802909164
:10431000B902A091BA02B091BB02809300029093BF
:104320000102A0930202B09303020E948B0C9ACF69
:1043300086ED95E00E94FF128823A1F02091B8023B
:104340003091B9024091BA025091BB02AAE0B0E0AC
:104350004CD26093B8027093B9028093BA029093E2
:10436000BB02E6C089EB95E00E94FF12882389F02A
:104370002091B8023091B9024091BA025091BB022B
:10438000AAE0B0E032D2DC01CB010196A11DB11D43
:10439000B7C08CE995E00E94FF12882389F0209134
:1043A000B8023091B9024091BA025091BB02AAE022
:1043B000B0E01BD2DC01CB010296A11DB11DA0C053
:1043C0008FE795E00E94FF12882389F02091B802C0
:1043D0003091B9024091BA025091BB02AAE0B0E01C
:1043E00004D2DC01CB010396A11DB11D89C082E678
:1043F00095E00E94FF12882389F02091B802309145
:10440000B9024091BA025091BB02AAE0B0E0EDD1EE
:10441000DC01CB010496A11DB11D72C085E495E0BD
:104420000E94FF12882389F02091B8023091B902CE
:104430004091BA025091BB02AAE0B0E0D6D1DC01B3
:10444000CB010596A11DB11D5BC088E295E00E94DD
:10445000FF12882389F02091B8023091B90240916F
:10446000BA025091BB02AAE0B0E0BFD1DC01CB019F
:104470000696A11DB11D44C08BE095E00E94FF127D
:10448000882389F02091B8023091B9024091BA0294
:104490005091BB02AAE0B0E0A8D1DC01CB010796A5
:1044A000A11DB11D2DC08EEE94E00E94FF12882345
:1044B00089F02091B8023091B9024091BA0250912E
:1044C000BB02AAE0B0E091D1DC01CB010896A11DAE
:1044D000B11D16C081ED94E00E94FF128823C9F03F
:1044E0002091B8023091B9024091BA025091BB02BA
:1044F000AAE0B0E07AD1DC01CB010996A11DB11D83
:104500008093B8029093B902A093BA02B093BB0211
:104510000FC084EB94E00E94FF12882309F4A2CE1E
:104520001092B8021092B9021092BA021092BB0215
:104530000E94530C97CEE3E8F3E01382128288EED8
:1045400093E0A0E0B0E084839583A683B78329E05D
:1045500032E03183208325EC30E03587248724EC5A
:1045600030E03787268720EC30E0318B208B21EC40
:1045700030E0338B228B22EC30E0358B248B26EC21
:1045800030E0378B268B118E128E138E148EE0E264
:10459000F4E016821782108611861286138614861E
:1045A000158616861786108A118A128A138A148A2B
:1045B000158AE8E6F4E01382128284839583A68349
:1045C000B7838BE192E09183808310922E06109244
:1045D0002D0610921106109210061092F4051092FA
:1045E000F3051092D7051092D6051092BA051092D5
:1045F000B90510929D0510929C05109280051092AD
:104600007F05109263051092620510924605109284
:104610004505109229051092280510920C0510925C
:104620000B051092EF041092EE041092D204109237
:10463000D1041092B5041092B404A4E7B4E0139628
:104640001C921E92129720EF30E015963C932E9309
:10465000149780E491E017969C938E931697199681
:104660003C932E9318971B969C938E931A9755966E
:104670001C9255971D961C921E921C971F961C9279
:104680001E921E9781E054968C9354972FEF3FEF24
:1046900053963C932E93529751963C932E9350975A
:1046A00056968C93569757961C92579759961C92EC
:1046B0001E9258978DE292E011969C938E938AE019
:1046C0005E968C935E9789E05F968C935F978FEFF1
:1046D00090968C93909791968C93919792968C93B9
:1046E000929793968C9393975A961D921D921D9232
:1046F0001C925D97E2EDF6E0E491F0E0EE0FFF1F13
:10470000E255F94F859194919D969C938E939C9739
:10471000E2E7F6E0E491D196EC93D197E1EDF6E093
:10472000E491F0E0EE0FFF1FE255F94F859194916F
:104730009B969C938E939A97E1E7F6E0E491D2964C
:10474000EC93D29799961C921E929897D0961C92B1
:10475000D09795961C921E9294979E961C929E9727
:1047600097961C921E9296979F961C920895A1E28E
:104770001A2EAA1BBB1BFD010DC0AA1FBB1FEE1FDB
:10478000FF1FA217B307E407F50720F0A21BB30B26
:10479000E40BF50B661F771F881F991F1A9469F7A2
:1047A00060957095809590959B01AC01BD01CF01FE
:1047B0000895052E97FB16F400940FD057FD05D0F1
:1047C000D6DF07FC02D046F408C0509540953095DE
:1047D00021953F4F4F4F5F4F08959095809570956D
:1047E00061957F4F8F4F9F4F089509D0A59F900DE2
:1047F000B49F900DA49F800D911D11240895A29F38
:10480000B001B39FC001A39F700D811D1124911DA4
:10481000B29F700D811D1124911D0895EE0FFF1F91
:10482000881F8BBF0790F691E02D1994E8DF3323A2
:1048300012F48A1B9B0B01C0E2DFB7FF0895821BB5
:10484000930B089581E090E0F8940FC0FB01DC0128
:104850004150504048F001900D920020C9F701C02E
:0E4860001D9241505040E0F70895F894FFCFAC
:10486E00640000000100000000340DE116CD0C7A4A
:10487E000DFE0CDC0CF00C00000000A9077A07D826
:10488E00074E0772075E074F07000000002410E175
:10489E0016D807D707B406DB07750AE709FD06EA3F
:1048AE000659051107D80AB30A7A064006020630E1
:1048BE0004BA03F810564D4450565F317C315F56A2
:1048CE004D4450560D0A005345542053504545440F
:1048DE00004F4E004F46460030003100320033008C
:1048EE0034003500360037003800390044656C65F9
:1048FE0074650053706565643A0054656D703A00D6
:10490E00564D4450455F003A323A007C005F564D9A
:08491E00445045006D730000D8
:00000001FF
