:1000000087C30000B6C30000B4C30000B2C3000041
:10001000B0C30000AEC30000ACC30000AAC3000020
:10002000A8C30000A6C30000A4C30000A2C3000030
:10003000A0C300009EC300009CC300009AC3000040
:1000400098C3000096C3000094C3000092C3000050
:1000500090C300008EC300008CC300000C944E16A9
:1000600088C300000C9427150C94FE1482C3000072
:1000700080C300007EC300007CC300007AC3000080
:1000800078C3000076C3000074C3000072C3000090
:1000900070C300006EC300006CC300000C946B0EB4
:1000A00068C3000066C3000064C3000062C30000B0
:1000B00060C300005EC300005CC300005AC30000C0
:1000C00058C3000056C3000054C3000052C30000D0
:1000D00050C300004EC300004CC300004AC30000E0
:1000E00048C300008C158F157E1582158615C61520
:1000F000931597159D15A115A515AB15AF15B3153E
:10010000C615B915BD15C115000021002400270032
:100110002A002D0030003300010100000401070116
:100120000A0100000000003E5B4F5B3E3E6B4F6BE0
:100130003E1C3E7C3E1C183C7E3C181C577D571CC8
:100140001C5E7F5E1C00183C1800FFE7C3E7FF0041
:1001500018241800FFE7DBE7FF30483A060E26298F
:10016000792926407F050507407F05253F5A3CE752
:100170003C5A7F3E1C1C08081C1C3E7F14227F2218
:10018000145F5F005F5F06097F017F006689956AE3
:10019000606060606094A2FFA29408047E0408106E
:1001A000207E201008082A1C08081C2A08081E1097
:1001B0001010100C1E0C1E0C30383E3830060E3E4F
:1001C0000E06000000000000005F000000070007AE
:1001D00000147F147F14242A7F2A122313086462D8
:1001E00036495620500008070300001C2241000039
:1001F00041221C002A1C7F1C2A08083E0808008097
:10020000703000080808080800006060002010082E
:1002100004023E5149453E00427F4000724949492F
:10022000462141494D331814127F10274545453961
:100230003C4A494931412111090736494949364665
:100240004949291E00001400000040340000000845
:1002500014224114141414140041221408020159E8
:1002600009063E415D594E7C1211127C7F49494975
:10027000363E414141227F4141413E7F494949410A
:100280007F090909013E414151737F0808087F0039
:10029000417F41002040413F017F081422417F40BF
:1002A0004040407F021C027F7F0408107F3E414196
:1002B000413E7F090909063E4151215E7F09192906
:1002C00046264949493203017F01033F4040403FF0
:1002D0001F2040201F3F4038403F63140814630331
:1002E000047804036159494D43007F4141410204B0
:1002F000081020004141417F0402010204404040B7
:100300004040000307080020545478407F284444AC
:10031000383844444428384444287F3854545418C6
:1003200000087E090218A4A49C787F0804047800C1
:10033000447D40002040403D007F102844000041A3
:100340007F40007C047804787C08040478384444B6
:100350004438FC1824241818242418FC7C080404AD
:1003600008485454542404043F44243C4040207C16
:100370001C2040201C3C4030403C44281028444C69
:100380009090907C4464544C440008364100000036
:10039000770000004136080002010204023C2623D7
:1003A000263C1EA1A161123A4040207A385454558F
:1003B0005921555579412254547842215554784059
:1003C00020545579400C1E527212395555555939E1
:1003D0005454545939555454580000457C41000236
:1003E000457D420001457C407D1211127DF028259B
:1003F00028F07C545545002054547C547C0A097FD5
:100400004932494949323A4444443A324A484830E8
:100410003A4141217A3A42402078009DA0A07D3D9A
:100420004242423D3D4040403D3C24FF2424487E22
:100430004943662B2FFC2F2BFF0929F620C0887E0D
:10044000090320545479410000447D413048484A12
:1004500032384040227A007A0A0A727D0D19317DC5
:100460002629292F28262929292630484D40203899
:100470000808080808080808382F10C8ACBA2F1058
:100480002834FA00007B000008142A142222142ABF
:1004900014085500550055AA55AA55AAFF55FF55F1
:1004A000FF000000FF00101010FF00141414FF00E4
:1004B0001010FF00FF1010F010F0141414FC0014C2
:1004C00014F700FF0000FF00FF1414F404FC1414E0
:1004D00017101F10101F101F1414141F00101010DD
:1004E000F0000000001F101010101F10101010F06E
:1004F00010000000FF101010101010101010FF104E
:10050000000000FF140000FF00FF00001F10170094
:1005100000FC04F414141710171414F404F400006D
:10052000FF00F714141414141414F700F71414141F
:10053000171410101F101F141414F4141010F010BE
:10054000F000001F101F0000001F14000000FC142A
:100550000000F010F01010FF10FF141414FF14101E
:1005600010101F00000000F010FFFFFFFFFFF0F071
:10057000F0F0F0FFFFFF0000000000FFFF0F0F0F83
:100580000F0F3844443844FC4A4A4A347E0202067B
:1005900006027E027E0263554941633844443C04AE
:1005A000407E201E2006027E020299A5E7A5991C26
:1005B0002A492A1C4C7201724C304A4D4D30304849
:1005C000784830BC625A463D3E494949007E0101A7
:1005D000017E2A2A2A2A2A44445F444440514A443C
:1005E0004040444A51400000FF0103E080FF00000A
:1005F00008086B6B083612362436060F090F060002
:100600000018180000001010003040FF0101001F0A
:1006100001011E00191D1712003C3C3C3C0000006B
:100620000000010210202008081020401020408007
:1006300002010201080402010102040810204080A6
:100640008040201008040201800402018040201034
:10065000080402010804020101020408102040807D
:10066000010204081020408000002200250028001C
:100670002B002E00310034000201000005010801AA
:100680000B01050505050705080808080202020216
:100690000A0A08080404040401010101010101011E
:1006A0000303030303030303040707070C0C0C0CE9
:1006B0000C0C0C0C020202020606060606060606D2
:1006C0000B0B0B0B0B0B0B0B00000A0B02090C0D99
:1006D0000E080703040100000000000000000000F5
:1006E000000000000000000000000000000000000A
:1006F00000000000121110000000000000000000C7
:100700000000000000000000000000000000BE200B
:1007100011241FBECFEFD1E2DEBFCDBF00E00CBF82
:1007200012E0A0E0B2E0E0E9F4E400E00BBF02C0B8
:1007300007900D92A439B107D9F725E0A4E9B2E0FA
:1007400001C01D92A83DB207E1F713E0C8E8D3E06D
:1007500000E006C021970109802FFE010E941F22A0
:10076000C738D10780E00807A9F70E9426170C9424
:10077000462246CC6F927F928F929F92AF92BF9209
:10078000CF92DF92EF92FF920F931F93CF93DF935D
:10079000EC014B015A0169013801E881F9810284B9
:1007A000F385E02D1995E881F9810288F389E02D20
:1007B00087019601A501B401CE011995E881F9815F
:1007C000A501460D571D415051090288F389E02DBE
:1007D0009601B401CE011995E881F9810088F1896B
:1007E000E02D9301A501B401CE011995E881F981AD
:1007F000C80CD91CB601615071090088F189E02D3F
:100800009301A501CE011995E881F9810688F78940
:10081000E02DCE01DF91CF911F910F91FF90EF90CE
:10082000DF90CF90BF90AF909F908F907F906F9010
:100830001994CF92DF92EF92FF920F931F93CF9371
:10084000DF9300D000D0CDB7DEB76C01DC01ED91B5
:10085000FC916217730789F4041715072CF4942F81
:10086000852FA801092F182F041B150B98012F5F46
:100870003F4F048CF58DE02D12C04017510709F54C
:10088000261737072CF4962F872FB901292F382FD9
:10089000261B370B2F5F3F4F068CF78DE02D87010E
:1008A000C601199526960FB6F894DEBF0FBECDBFD0
:1008B000DF91CF911F910F91FF90EF90DF90CF903C
:1008C00008950284F385E02D2D833E834B835C8362
:1008D00069837A831995D601ED91FC910488F58995
:1008E000E02D2D813E814B815C8169817A81C60139
:1008F0001995D601ED91FC910688F789E02DC60186
:1009000026960FB6F894DEBF0FBECDBFDF91CF9114
:100910001F910F91FF90EF90DF90CF901994EF927D
:10092000FF920F931F93DC01ED91FC9111971A96A2
:100930000D911C911B9718962D913C91199700A031
:10094000F1A1E02D7B0140E050E060E070E01995FE
:100950001F910F91FF90EF9008954F925F926F92C9
:100960007F928F929F92AF92BF92CF92DF92EF923F
:10097000FF920F931F93CF93DF931F921F92CDB7D8
:10098000DEB76C015A0139014801DC01ED91FC919F
:100990000284F385E02D69837A8319956981462E57
:1009A0007A81572E640C751CD601ED91FC9146148A
:1009B00057046CF40088F189E02D87019401A501AA
:1009C000B201C6011995BFEF4B1A5B0AEDCF06883D
:1009D000F789E02DC6010F900F90DF91CF911F9105
:1009E0000F91FF90EF90DF90CF90BF90AF909F90CE
:1009F0008F907F906F905F904F901994AF92BF92BD
:100A0000CF92DF92EF92FF920F931F93CF93DF93DA
:100A100000D01F92CDB7DEB75C016901DC01ED911A
:100A2000FC910284F385E02D4B835C8369837A8398
:100A30001995D501ED91FC9169817A819B012C0D6D
:100A40003D1D215031090488F589E02D78014B8145
:100A50005C818A01C5011995D501ED91FC9106884B
:100A6000F789E02DC5010F900F900F900F90DF9147
:100A7000CF911F910F91FF90EF90DF90CF90BF909B
:100A8000AF901994AF92BF92CF92DF92EF92FF9204
:100A90000F931F93CF93DF9300D01F92CDB7DEB794
:100AA0005C016901DC01ED91FC910284F385E02D8C
:100AB0004B835C8369837A831995D501ED91FC9111
:100AC0004B815C81C40ED51EB1E0CB1AD1080488DD
:100AD000F589E02D7801860169817A819B01C50144
:100AE0001995D501ED91FC910688F789E02DC50196
:100AF0000F900F900F900F90DF91CF911F910F915A
:100B0000FF90EF90DF90CF90BF90AF901994089531
:100B1000EF92FF920F931F93DC01ED91FC9100A0E7
:100B2000F1A1E02D19951F910F91FF90EF9008957D
:100B30000F931F93DC01ED91FC91068CF78DE02D56
:100B400019951F910F9108950F931F93DC01ED915B
:100B5000FC91048CF58DE02D19951F910F9108954E
:100B6000DC01ED91FC910084F185E02D199408954C
:100B70002F923F924F925F926F927F928F929F92AD
:100B8000AF92BF92CF92DF92EF92FF920F931F939B
:100B9000CF93DF9300D0CDB7DEB74C017B836A8360
:100BA0006A01590117019801241B350B37FF03C057
:100BB000319521953109C5014A815B81841B950BD3
:100BC00097FF03C091958195910951E05983821750
:100BD000930714F019820BC09A2D8B2D5801092F01
:100BE000182F9A818B81DB82CA82C92ED82E8A81E6
:100BF0009B81A816B9065CF49C2D8D2D6801092FE8
:100C0000182F9A818B81BB82AA82A92EB82E25012A
:100C1000AA81BB814A1A5B0A38016C187D0877FEED
:100C200003C0719461947108720157FE03C0BFEF55
:100C3000EB1AFB0AF594E794C016D1061CF00FEFEF
:100C40001FEF1FC001E010E01CC0D401ED91FC912A
:100C5000B9810484F585E02D9101BB23C1F04A815F
:100C60005B81B601C4011995E618F708F7FE04C0C8
:100C7000C00ED11EE40CF51CEA81FB813196FB838A
:100C8000EA834A815B81A416B506FCF604C0A6017E
:100C90006A817B81E7CF0F900F900F90DF91CF910A
:100CA0001F910F91FF90EF90DF90CF90BF90AF908A
:100CB0009F908F907F906F905F904F903F902F907C
:100CC0000895CF92DF92EF92FF920F931F93CF93ED
:100CD000DF9300D000D0CDB7DEB76C01DC01ED9121
:100CE000FC910284F385E02D2D833E834B835C834E
:100CF00069837A831995D601ED91FC910684F78575
:100D0000E02D2D813E814B815C8169817A81C60114
:100D10001995D601ED91FC910688F789E02DC60161
:100D200026960FB6F894DEBF0FBECDBFDF91CF91F0
:100D30001F910F91FF90EF90DF90CF901994EF9259
:100D4000FF920F931F93CF93DF9300D000D0CDB7C6
:100D5000DEB77C01DC01ED91FC910284F385E02D8E
:100D60002D833E834B835C8369837A831995D701F6
:100D7000ED91FC910288F389E02D2D813E814B811C
:100D80005C8169817A81C7011995D701ED91FC9148
:100D90000688F789E02DC70126960FB6F894DEBFC6
:100DA0000FBECDBFDF91CF911F910F91FF90EF90BC
:100DB0001994EF92FF920F931F93CF93DF9300D07C
:100DC00000D0CDB7DEB77C01DC01ED91FC9102844F
:100DD000F385E02D2D833E834B835C8369837A8387
:100DE0001995D701ED91FC910088F189E02D2D81B5
:100DF0003E814B815C8169817A81C7011995D70158
:100E0000ED91FC910688F789E02DC70126960FB673
:100E1000F894DEBF0FBECDBFDF91CF911F910F9130
:100E2000FF90EF9019940F931F93CF93DF9300D00F
:100E300000D0CDB7DEB78C01DC01ED91FC910284CE
:100E4000F385E02D2D833E834B835C8369837A8316
:100E50001995D801ED91FC910484F585E02D2D8143
:100E60003E814B815C8169817A81C8011995D801E5
:100E7000ED91FC910688F789E02DC80126960FB602
:100E8000F894DEBF0FBECDBFDF91CF911F910F91C0
:100E90001994EF92FF920F931F93DC01ED91FC9157
:100EA0000684F785E02D780101E010E019951F9187
:100EB0000F91FF90EF900895EF92FF920F931F9381
:100EC000DC01ED91FC910684F785E02D7801890124
:100ED00021E030E019951F910F91FF90EF90089558
:100EE000DC019C96ED91FC919D979081D1968C911F
:100EF000892B8083089585ED8093BC008091BC0090
:100F000084FDFCCF1092290308954091BE02262F44
:100F100030E0240F311D21323105DCF4209129030A
:100F20002430C9F4FC0180E090E0861758F4309139
:100F3000BE022191DC01A456BD4FA30FB11D2C931D
:100F40000196F3CF8091BE02680F6093BE0280E0ED
:100F5000089581E0089582E008950895E091D7050D
:100F60008091D605E81730F4F0E0ED51FD4F808117
:100F700090E008958FEF9FEF08959091D7058091AD
:100F8000D605981750F4E92FF0E0ED51FD4F208180
:100F900030E09F5F9093D70502C02FEF3FEFC9016C
:100FA00008958091D60590E02091D705821B910984
:100FB0000895CF92DF92EF92FF920F931F93CF93FA
:100FC000DF937C01262F972F8A0180912A038823A3
:100FD00091F0C62FD72F6E01C40ED51ECC15DD059E
:100FE00069F06991D701ED91FC910190F081E02DBC
:100FF000C7011995F3CF642F822F87DFC801DF91D6
:10100000CF911F910F91FF90EF90DF90CF900895B7
:10101000CF93DF931F92CDB7DEB7698320912A0368
:101020002223D1F020914D03203240F021E030E026
:10103000FC013383228380E090E014C080912B0375
:10104000E82FF0E0E45DFC4F998190838F5F8093FF
:101050002B0380934D0304C061E0CE01019655DF60
:1010600081E090E00F90DF91CF910895089580E0A6
:1010700090E00895FC0181A187FF1EC0428D538D31
:10108000648D758D20E080E092E1AAE7B0E048171A
:1010900059076A077B0740F4B695A79597958795FA
:1010A0002F5F2630A1F727E091E09227892F806AF1
:1010B000869591708CBD9DBDA4A5B5A59C9181A977
:1010C000809589238C9308952F923F924F925F923F
:1010D0006F927F928F929F92AF92BF92CF92DF9248
:1010E000EF92FF920F931F93CF93DF93CDB7DEB7AD
:1010F0006C970FB6F894DEBF0FBECDBF9C8F8B8F61
:101100005B011A011F830E833701C982DC015896E7
:101110004D915C9159974115510509F0E5C018961C
:101120008D919C911997681779070CF0CAC11A968E
:101130008D919C911B97281639060CF0C2C18C2CFE
:10114000912CFB0136E0C39EE00DF11D1124FB87BD
:10115000EA871E161F060CF0B4C1C40133E0880FE5
:10116000991F3A95E1F79D878C87820D931D18167C
:1011700019060CF0A6C157968C91811103C0203B33
:1011800008F02F5FAB8DBC8DED91FC91119702841F
:10119000F385E02DCD012A8F19952A8DB5E02B9F7F
:1011A00090011124F5013596FF87EE87BB82AA8254
:1011B0002501A9014A195B09598B488BC101089681
:1011C0009B8B8A8BE889F989E40DF51DEE5DFE4F56
:1011D0009491988761013D822C82A885A0FF13C05D
:1011E000AB8DBC8DED91FC91B981B13031F40484AB
:1011F000F585E02D2E813F8116C00684F785E02D10
:10120000EE80FF801AC0EE81FF816E167F06F1F03E
:10121000AB8DBC8DED91FC91B981B13051F404845A
:10122000F585E02D9301A601B2018B8D9C8D19955A
:101230000DC00684F785E02D7301840194014C8173
:101240005D816A817B818B8D9C8D1995E885E69502
:10125000E887FFEFCF1ADF0A2C813D81280D391D69
:101260003D832C834A895B89C416D50609F0B5CF26
:101270005FEF451A550A8A819B81880D991D9B83D2
:101280008A83AE85BF854A165B0609F09BCFEE8147
:10129000FF816E167F0609F4F2C0EB8DFC8DA081F4
:1012A000B181F981F13079F4B5016B5F7F4F5096D0
:1012B000ED91FC915197830128E030E0A1018B8DE5
:1012C0009C8D1995DCC06A857B85681979091E9605
:1012D000ED91FC911F9773010C851D859401A1016F
:1012E0008B8D9C8D1995CBC0FA01349694913297D1
:1012F00065917491291BCB01B7E02B9F800D911D47
:101300001124FA01259134913B8B2A8BFC014591E4
:1013100054915B834A83FC013296C4903196549178
:101320005E87329614913196D4908981823058F03C
:10133000612E012E000C7708AD2D0D2C000CBB0B7F
:10134000B987A88704C019861886612C712CAB8DCB
:10135000BC8DED91FC9111970284F385E02DCD01B8
:101360001995B9818B2E912C689CC001699C900DB8
:10137000789C900D1124FC01EA0DFB1DFD87EC8784
:101380001C82712C612CE12F110FFF0B95012E0F88
:101390003F1F3B872A87AC0CB11CA5014E0F5F1F76
:1013A0005F8B4E8BC1018D0D911DD7FC9A95998F46
:1013B000888F4E85641608F062C0862D90E04885BF
:1013C0005985480F591F489D9001499D300D589DE2
:1013D000300D1124D901A20DB31DB98BA88BAA849D
:1013E000BB844C845D84DC80BA85DB1AE88DF98D82
:1013F000E80FF91FFD8BEC8B8D2D8A0D2E893F890F
:10140000A216B306B9F1877061F48A819B810196B7
:10141000EA89FB89AA81BB81EA0FFB1F74909B8339
:101420008A8377FE20C0AB8DBC8DED91FC91B98194
:10143000B13061F40484F585E02D2E813F814C8923
:101440005D89B5018B8D9C8D19950DC00684F7853E
:10145000E02DEE80FF808401940148895989B20112
:101460008B8D9C8D1995770CEFEFAE1ABE0A480C48
:10147000591CC2CF3C813C0D3C8363949ACFAB8D09
:10148000BC8DED91FC9111970688F789E02DCD0177
:101490006C960FB6F894DEBF0FBECDBFDF91CF9133
:1014A0001F910F91FF90EF90DF90CF90BF90AF9082
:1014B0009F908F907F906F905F904F903F902F9074
:1014C00019946C960FB6F894DEBF0FBECDBFDF91B6
:1014D000CF911F910F91FF90EF90DF90CF90BF9031
:1014E000AF909F908F907F906F905F904F903F90C4
:1014F0002F9008952F923F924F925F926F927F921A
:101500008F929F92AF92BF92CF92DF92EF92FF9213
:101510000F931F93CF93DF93CDB7DEB728970FB606
:10152000F894DEBF0FBECDBF5C013B014A01388796
:101530002F83FC82EB8281E090E02C01421A530A57
:10154000C9019195819591099C01220F331F3A831E
:101550002983170133E0230E311CEE24E394F12C90
:10156000802F81708D8302700E83C7010197EF81F8
:10157000F8858E179F070CF078C057FC0CC0AF8120
:10158000B8851197B887AF83E981FA813296FA83DB
:10159000E9834E0E5F1EC701880F991F0196480E02
:1015A000591EFD81FF2359F1D501ED91FC912F8149
:1015B0003885220F331F2F5F3F4F8B819C81280F6F
:1015C000391F0088F189E02D8601A401AF81B8851B
:1015D0004A1B5B0BB701660D771DC5011995D50137
:1015E000ED91FC910088F189E02D9101A4014E1943
:1015F0005F096F817885660D771DC5011995BE81DC
:10160000BB2361F1D501ED91FC912F813885220F2B
:10161000331F2F5F3F4F8B819C81280F391F00881C
:10162000F189E02D8601A401AF81B8854A1B5B0BCF
:10163000B3016E197F09C5011995D501ED91FC9192
:101640000088F189E02D9101A4014E195F09B301D1
:101650008F819885681B790BC50119959FEFE91A51
:10166000F90AA2E02A0E311C80CF28960FB6F89412
:10167000DEBF0FBECDBFDF91CF911F910F91FF90C5
:10168000EF90DF90CF90BF90AF909F908F907F9022
:101690006F905F904F903F902F9008952F923F92C0
:1016A0004F925F926F927F928F929F92AF92BF9272
:1016B000CF92DF92EF92FF920F931F93CF93DF931E
:1016C00000D000D0CDB7DEB79E838D834B013A01A9
:1016D0006901802F21E030E029014C185D082224A7
:1016E00033242C183D08220C331CAA24A394B12CBB
:1016F00001E010E0982F94709983A82FA270AA831C
:10170000B82FB870BB8381708C83C50101978C158D
:101710009D050CF0A6C057FC08C0E1E0CE1AD10828
:10172000F2E02F0E311C420C531C0E5F1F4F400E77
:10173000511E8981882311F1AD81BE81ED91FC910B
:1017400011970484F585E02D9701A3014C0D5D1DD3
:10175000B501680D791DCD011995AD81BE81ED9161
:10176000FC9111970484F585E02D9701A501460DA4
:10177000571DB4016C0D7D1DCD011995BA81BB2398
:1017800011F1AD81BE81ED91FC9111970484F58535
:10179000E02D9701A3014C195D09B501680D791D74
:1017A000CD011995AD81BE81ED91FC911197048415
:1017B000F585E02D9701A3014A195B09B4016C0D71
:1017C0007D1DCD011995BB81BB2311F1AD81BE817A
:1017D000ED91FC9111970484F585E02D9701A50109
:1017E000460D571DB4016C197D09CD011995AD81C8
:1017F000BE81ED91FC9111970484F585E02D970150
:10180000A3014C0D5D1DB4016A197B09CD01199529
:10181000BC81BB2311F1AD81BE81ED91FC9111978B
:101820000484F585E02D9701A3014A195B09B401F1
:101830006C197D09CD011995AD81BE81ED91FC91A9
:1018400011970484F585E02D9701A3014C195D09DA
:10185000B4016A197B09CD011995BFEFAB1ABB0A18
:1018600054CF26960FB6F894DEBF0FBECDBFDF91E2
:10187000CF911F910F91FF90EF90DF90CF90BF908D
:10188000AF909F908F907F906F905F904F903F9020
:101890002F900895FC0181A187FF05C06EBD0DB496
:1018A00007FEFDCF089528E030E090E8A4A1B5A19F
:1018B00086A5492F462319F04C91842B03C04C91E7
:1018C000809584238C93A0A5B1A54C9180A9809587
:1018D00084238C93A0A5B1A54C9180A9842B8C93D3
:1018E00096952150310911F70895CF93DF93EC01BC
:1018F000EAA5FBA590818AA9809589238083CE01E2
:10190000C9DFEAA5FBA590818AA9892B8083DF9195
:10191000CF9108958F929F92AF92BF92CF92DF9214
:10192000EF92FF920F931F93CF93DF93EC01490146
:1019300081E0881A9108860E971EC401A0E0B0E0ED
:101940004B01A12CB12C540199248824882A992A6E
:10195000AA2ABB2A680181E0C81AD108C40ED51E84
:10196000C601A0E0B0E06A01E12CF12C7601DD2493
:10197000CC24C82AD92AEA2AFB2A6AE2CE01B5DF9A
:1019800029A16B2D77278827992727FF18C06EBDBF
:101990000DB407FEFDCFC501AA27BB278EBD0DB430
:1019A00007FEFDCFBB27AB2D9A2D892D8EBD0DB423
:1019B00007FEFDCF8EBC0DB407FEFDCF10C0CE01DB
:1019C00069DFB50188279927CE0164DF99278B2D20
:1019D0007A2D692DCE015EDF682DCE015BDF6BE2D3
:1019E000CE0183DF29A16F2D77278827992727FF2D
:1019F00018C06EBD0DB407FEFDCFC701AA27BB27D7
:101A00008EBD0DB407FEFDCFBB27AF2D9E2D8D2DB6
:101A10008EBD0DB407FEFDCFCEBC0DB407FEFDCFCD
:101A200010C0CE0137DFB70188279927CE0132DFFA
:101A300099278F2D7E2D6D2DCE012CDF6C2DCE01A3
:101A400029DF6CE2CE01DF91CF911F910F91FF90C2
:101A5000EF90DF90CF90BF90AF909F908F9045CF49
:101A60004F925F926F927F928F929F92AF92BF92AE
:101A7000CF92DF92EF92FF920F931F93CF93DF935A
:101A80005C01FB01E9014701DC0118962D913C91B5
:101A90001997621773070CF060C01A968D919C918C
:101AA0001B97481759070CF058C06B01CC0EDD1E70
:101AB000D60111977A01E00EF11EB701615071094C
:101AC000B7FD4BC077FD49C0F7FF03C0E601E0E07A
:101AD000F0E057FF03C0870140E050E0A217B307D2
:101AE0001CF0E901CE1BDF0B681779071CF08C0195
:101AF000041B150B9E01D8010E9427226B017C015B
:101B0000BF01C50107DF26013701F50181A187FF6C
:101B100013C04114510461047104F9F09EBC0DB46A
:101B200007FEFDCF8EBC0DB407FEFDCFF1E04F1ACE
:101B3000510861087108EDCF41145104610471042A
:101B400061F0692DC501A6DE682DC501A3DE81E027
:101B5000481A510861087108EFCFDF91CF911F91AA
:101B60000F91FF90EF90DF90CF90BF90AF909F903C
:101B70008F907F906F905F904F900895EF92FF92BB
:101B80000F931F93CF93DF93EC01CB0177FD2DC013
:101B9000688579858617970744F557FD26C06A85BD
:101BA0007B85461757070CF5E32EF22EBC0101E0AA
:101BB00010E021E030E0CE01ADDE89A187FF09C051
:101BC000EEBC0DB407FEFDCFFEBC0DB407FEFDCF8D
:101BD0000CC06E2DCE015EDE6F2DCE01DF91CF9158
:101BE0001F910F91FF90EF9055CEDF91CF911F91F4
:101BF0000F91FF90EF9008950F931F93CF93DF9372
:101C00001F92CDB7DEB78C01DC01ED91FC9102840F
:101C1000F385E02D698319956981611102C060E245
:101C200001C061E2C80161DED801ED91FC91068836
:101C3000F789E02DC8010F90DF91CF911F910F918F
:101C400019941F93CF93DF93EC0163706D8B623017
:101C5000C1F0633001F1613051F080EF90E099877D
:101C6000888780E491E09B878A8718E41DC080E420
:101C700091E09987888780EF90E09B878A8718E2B8
:101C800013C080EF90E09987888780E491E09B877C
:101C90008A8718E809C080E491E09987888780EFF7
:101CA00090E09B878A8718EEE881F9810284F385AA
:101CB000E02DCE01199566E3CE0117DE612FCE012E
:101CC000E9DDE881F9810688F789E02DCE01DF9111
:101CD000CF911F9119941F920F920FB60F9211245A
:101CE0000BB60F922F933F934F935F936F937F9316
:101CF0008F939F93AF93BF93EF93FF938091B9001E
:101D0000887F803609F49CC068F5883209F45BC08E
:101D100090F4803109F454C038F4882309F4F6C0F3
:101D2000883009F44DC0F6C0883109F44CC08032C7
:101D300009F45DC0EFC0803409F468C048F4803312
:101D400009F455C0883309F0E5C080932703D8C053
:101D5000803509F44FC0883509F45DC0883409F036
:101D6000D9C0D6C0883909F4C7C0A8F4883709F4A7
:101D700067C038F4883609F463C0803709F460C05E
:101D8000C9C0883809F4B8C0803909F45FC0803808
:101D900009F0C0C05BC0803B09F486C038F4803ACB
:101DA00009F466C0883A09F47FC0B4C0803C09F4E5
:101DB000A7C0883C09F4A4C0883B09F48AC0AAC023
:101DC0008091040310C090912603809125039817F9
:101DD00070F5E091260381E08E0F80932603F0E0FA
:101DE000EB5FFC4F80818093BB0085EC86C08093C5
:101DF00027038EC0E091260381E08E0F8093260397
:101E00008091BB00F0E0EB5FFC4F80839091260354
:101E1000809125036EC0E091260381E08E0F8093B0
:101E200026038091BB00F0E0EB5FFC4F8083809144
:101E3000280381116DC081E08093030384EA61C0AF
:101E400083E0809329031092E202CFCF8091E202D7
:101E5000803208F051C0E091E20281E08E0F809361
:101E6000E2028091BB00F0E0EE53FD4F8083BDCFD6
:101E700085EC8093BC00109229038091E2028032AD
:101E800030F4E091E202F0E0EE53FD4F10826091F9
:101E9000E20270E0E091C002F091C10282EC92E0B7
:101EA00019951092E20236C084E0809329031092C3
:101EB000BF021092BE02E091BC02F091BD021995E2
:101EC0008091BE02811105C081E08093BE02109214
:101ED0009C02E091BF0281E08E0F8093BF02F0E090
:101EE000E456FD4F80818093BB009091BF028091AA
:101EF000BE02981708F479CF85E88093BC000AC029
:101F000085EC8093BC001092290304C01092270333
:101F10000E947B07FF91EF91BF91AF919F918F91AD
:101F20007F916F915F914F913F912F910F900BBED9
:101F30000F900FBE0F901F901895EF92FF920F9386
:101F40001F93E12CF12C0EE010E020E530E044E698
:101F500050E068E770E087EF93E00E946106E7EFEA
:101F6000F3E088E790E09587848784E690E09787A0
:101F7000868780E29DEF938B828B918B808B82E0B2
:101F8000848B4091940250919502609196027091D9
:101F90009702CF01FCD161E972E087EF93E01F91D6
:101FA0000F91FF90EF903DC7EF92FF920F931F9319
:101FB000E12CF12C0EE010E020E530E049E150E0AA
:101FC00068E770E087EF93E00E946106E7EFF3E0D7
:101FD00088E790E09587848789E190E097878687F6
:101FE0008FE190E0938B828B918B808B82E0848B4E
:101FF000409100025091010260910202709103022F
:10200000CF01C5D161E972E087EF93E01F910F9195
:10201000FF90EF9006C780919802882319F083E91A
:1020200095E002C086E795E011C0CF93DF93BC0135
:102030008EE493E0F6D6EC016EE872E08EE493E075
:10204000F0D68C0F9D1FDF91CF9108952F923F9274
:102050004F925F926F927F928F929F92AF92BF92B8
:10206000CF92DF92EF92FF920F931F93CF93DF9364
:10207000CDB7DEB72C970FB6F894DEBF0FBECDBF3D
:102080009C878B87DC011D962D903C901E971B969C
:10209000ED91FC911C97FA83E9831F962D913C9159
:1020A00050973A8729871696CD90DC901797189607
:1020B000AD90BC901997CA14DB0410F4260101C03E
:1020C00025015694479456944794512CAB85BC8572
:1020D00014966D907C9015971296ED91FC91139744
:1020E000FC83EB838D909C90D401ED91FC91028454
:1020F000F385E02DC401199588279927841995093E
:10210000FC01EE0FFF1FF887EF832B813C81240D2C
:10211000351D3E832D83D401ED91FC912F813885AF
:102120002C0D3D1D0684F785E02D71018501A3016D
:102130006D817E81C4011995EF81F885AE0EBF1EB9
:10214000F1E0AF1AB108640C751C6B817C816C0DD9
:102150007D1D64197509615071096101750101E006
:102160009201A301C401C6D902E09201A3016D81CD
:102170007E81C401BFD9D401ED91FC910688F78915
:10218000E02DC4011995EB85FC85208431842681DE
:1021900037813C832B8384809580E280F380C080EC
:1021A000D180D601ED91FC910284F385E02DC6012A
:1021B0001995AB80BC80EF81F885AE0EBF1E37014C
:1021C000640C751CD601ED91FC910288F389E02D19
:1021D00009811A819501A401B301C6011995F40181
:1021E000E20DF31DFE83ED83D601ED91FC914D814F
:1021F0005E81415051090288F389E02D09811A81DD
:102200009501B301C6011995EF81F8852E0E3F1E89
:10221000840C951CD601ED91FC910088F189E02D8C
:1022200009811A819101A401B701C6011995AB80FA
:10223000BC80AE0CBF1CD601ED91FC91B501615084
:1022400071090088F189E02D09811A819101A401A9
:10225000C6011995E980FA8001E09201A401B30159
:10226000C6011CDAA418B508B1E0AB1AB108E980C0
:10227000FA8002E09201A401B501C6010FDA8D8057
:102280009E8084189508E1E08E1A9108E980FA8012
:1022900004E09201A401B501C60100DAE980FA80E8
:1022A00008E09201A401B301C601F8D9D601ED916D
:1022B000FC910688F789E02DC6011995EB85FC8510
:1022C000F284808591859695879524813581820F4A
:1022D000931FF4E0FF9E8019910911246B857C8582
:1022E0006F5E7F4FDB010D900020E9F711976D01C4
:1022F000C61AD70AAB85BC85ED91FC91119716964D
:102300002D913C9117973695279512964D915C919A
:102310001397240F351FB3E0FB9EA00111244C9DA1
:1023200070014D9DF00C5C9DF00C11242E193F099D
:10233000358724879787868729853A85338B228B33
:10234000318B208BAB85BC851A968C91811101C095
:1023500081E0848BEB85FC85808191812C960FB682
:10236000F894DEBF0FBECDBFDF91CF911F910F91CB
:10237000FF90EF90DF90CF90BF90AF909F908F90A5
:102380007F906F905F904F903F902F904AC54F92F3
:102390005F926F927F928F929F92AF92BF92CF92F5
:1023A000DF92EF92FF920F931F93CF93DF93CDB7FE
:1023B000DEB7A1970FB6F894DEBF0FBECDBF8C017C
:1023C0006A017B0177FF2EC0DC01ED91FC91019049
:1023D000F081E02D6DE219955C0122273327A901D8
:1023E0002C193D094E095F0919A2FE01B1967F0122
:1023F0009AE0492E512C612C712CCA01B901A3011C
:1024000092010E94EE21605DD7016E937D0121153E
:1024100031054105510589F7BD01C80102D58A0D75
:102420009B1D1DC09A01AB0119A2FE01B1967F014F
:102430008AE0882E912CA12CB12CCA01B901A501EA
:1024400094010E94EE21605DD7016E937D012115FC
:1024500031054105510589F7BD01C801E2D4A196B6
:102460000FB6F894DEBF0FBECDBFDF91CF911F91A5
:102470000F91FF90EF90DF90CF90BF90AF909F9023
:102480008F907F906F905F904F90089520914D03B3
:1024900090914C03213208F04AC0809129038111A8
:1024A000FCCF32E03093290331E0309328033FEF33
:1024B000309327031092260320932503ACE2B3E068
:1024C00045E053E0FA013E2F341B321718F43D91DA
:1024D0003193F9CF1092040320910403990F922BAA
:1024E0009093040390910303913061F410920303DD
:1024F000909104039093BB009091BC0093FDF8CFA2
:1025000095EC01C095EE9093BC0090912903923018
:10251000E1F3909127039F3F79F080912703803268
:1025200041F080912703803331F084E005C081E0E1
:1025300003C082E001C083E010922B0310924D0390
:1025400010922A030895909129039111FCCF91E0F4
:1025500090932903909328032FEF20932703109241
:102560002603280F209325039093040390910403DE
:1025700090679093040390910303913061F410925B
:102580000303909104039093BB009091BC0093FDD2
:10259000F8CF95EC01C095EE9093BC009091290383
:1025A0009130E1F390912603981710F4809126035F
:1025B000A5E0B3E023EE32E0F9019E2F921B9817BD
:1025C00018F49D919193F9CF0895FC01538D448D9A
:1025D000252F30E0842F90E0821B930B541710F0CE
:1025E000CF96089501970895FC01918D828D9817DB
:1025F00061F0828DDF01A80FB11D5D968C91928DE7
:102600009F5F9F73928F90E008958FEF9FEF0895E3
:10261000FC01918D828D981731F0828DE80FF11DAC
:10262000858D90E008958FEF9FEF0895FC01918DC7
:10263000228D892F90E0805C9F4F821B91098F73C0
:10264000992708958EE493E0F1DF21E0892B09F4C6
:1026500020E0822F0895FC01848DDF01A80FB11DB9
:10266000A35ABF4F2C91848D90E001968F739927C8
:10267000848FA689B7892C93A089B1898C918064B5
:102680008C93938D848D981306C00288F389E02D76
:1026900080818F7D80830895EF92FF920F931F9327
:1026A000CF93DF93EC0181E0888F9B8D8C8D981305
:1026B00005C0E889F989808185FD23C0F62E0B8D40
:1026C00010E00F5F1F4F0F731127E02E8C8DE81263
:1026D0000BC00FB607FCFACFE889F989808185FF26
:1026E000F5CFCE01B8DFF2CF8B8DFE01E80FF11DE3
:1026F000E35AFF4FF0820B8FEA89FB898081806269
:1027000007C0EE89FF896083E889F9898081806448
:10271000808381E090E0DF91CF911F910F91FF9036
:10272000EF900895CF93DF93EC01888D8823C1F05B
:10273000EA89FB89808185FD05C0A889B9898C91CA
:1027400086FD0EC00FB607FCF5CF808185FFF2CF66
:10275000A889B9898C9185FFEDCFCE017CDFE8CFC8
:10276000DF91CF91089580E090E0892B19F06ADF26
:10277000811125C080E090E0892B41F080E090E05D
:10278000892B21F00E94000081111CC080E090E0A4
:10279000892B41F080E090E0892B21F00E9400001D
:1027A000811113C080E090E0892BA1F080E090E0DF
:1027B000892B81F00E94000081110AC008950E94B7
:1027C0000000D8CF0E940000E1CF0E940000EACFB5
:1027D0000C94000008953FB7F8948091D205909131
:1027E000D305A091D405B091D50526B5A89B05C009
:1027F0002F3F19F00196A11DB11D3FBFBA2FA92F80
:10280000982F8827820F911DA11DB11DBC01CD01FC
:1028100042E0660F771F881F991F4A95D1F70895E8
:102820000895FC016370658B8481958126813781D1
:10283000613039F0633029F09187808733872287B0
:102840000895318720879387828708950E943322D5
:10285000AF92BF92CF92EF92FF920F931F93CF93BD
:10286000DF93EC01262F888D998D009709F040C0E9
:102870006A3059F41D861C862C898E859F8538E028
:10288000239F800D911D112441C06D3009F4AAC011
:102890008E898823C1F03C898C859D8546E0349FD4
:1028A000800D911D112448855985481759075CF4FE
:1028B0001D861C868E859F8548E0349F800D911D66
:1028C00011249F878E87EA88FB88088919894E859D
:1028D0005F856C857D85CC88CE010E9464082C893B
:1028E0008C859D8536E0239F800D911D112442C06B
:1028F0006A3079F41D861C862C89FC013696E49199
:102900008E859F852E9F800D911D11249F878E8718
:1029100069C06D3009F466C0FC01349634916317C8
:1029200008F460C03196E491E61708F45BC0FC013E
:102930003296A590B490462F50E0431B510937E0E2
:10294000349FB001359F700D1124A60EB71EF501FE
:10295000329634913196E491332311F0E1110DC098
:10296000F5013496E4912C898C859D85E29F800D3C
:10297000911D11249D878C8735C0F50135964491B2
:102980005E89552311F16C89E32FF0E0E40FF11D0E
:1029900047FDFA956E9FD0016F9FB00D11244C85B5
:1029A0005D854A0F5B1FE885F985E417F5076CF430
:1029B0001D861C86FC013696E4918E859F856E9F50
:1029C000800D911D11249F878E87EA88FB880889D6
:1029D00019894E855F856C857D85CC88CE010E94E6
:1029E0006408BECF81E090E0DF91CF911F910F91FD
:1029F000FF90EF90CF90BF90AF9008951F920F92ED
:102A00000FB60F9211240BB60F922F933F934F9353
:102A10005F936F937F938F939F93AF93BF93EF9346
:102A2000FF938EE493E017DEFF91EF91BF91AF919A
:102A30009F918F917F916F915F914F913F912F91D6
:102A40000F900BBE0F900FBE0F901F9018951F9206
:102A50000F920FB60F9211240BB60F922F938F93F4
:102A60009F93EF93FF93E0915E03F0915F0380816A
:102A7000E0916403F091650382FD12C09081809122
:102A800067038F5F8F7320916803821751F0E09185
:102A90006703F0E0E25BFC4F958F8093670301C012
:102AA0008081FF91EF919F918F912F910F900BBE9D
:102AB0000F900FBE0F901F901895362F90E0FC01DD
:102AC000E853F94F4491FC01EE5DF94F2491FC016C
:102AD000EE57F94F9491992309F46BC0442309F4FC
:102AE00055C050E0FA013197E231F10508F04EC0CF
:102AF0008827EE58FF4F8F4F0C941F228091800043
:102B00008F7707C0809180008F7D03C08091800007
:102B1000877F809380003AC084B58F7702C084B5E8
:102B20008F7D84BD33C08091B0008F7703C08091CA
:102B3000B0008F7D8093B00029C0809190008F7786
:102B400007C0809190008F7D03C080919000877FA7
:102B5000809390001BC08091A0008F7707C0809168
:102B6000A0008F7D03C08091A000877F8093A0008C
:102B70000DC0809120018F7707C0809120018F7D4B
:102B800003C080912001877F80932001E92FF0E02E
:102B9000EE0FFF1FE859F94FA591B4918FB7F89444
:102BA000EC91311103C020952E2301C02E2B2C93C4
:102BB0008FBF0895CF93DF9390E0FC01EE5DF94F56
:102BC0002491FC01EE57F94F8491882361F190E044
:102BD000880F991FFC01E85FFE4FC591D491FC015D
:102BE000E859F94FA591B491611109C09FB7F894C4
:102BF0008881209582238883EC912E230BC062303C
:102C000061F49FB7F8943881822F8095832388835D
:102C1000EC912E2B2C939FBF06C08FB7F894E881C0
:102C20002E2B28838FBFDF91CF9108958F929F9293
:102C3000AF92BF92CF92DF92EF92FF926B017C0135
:102C4000CADD4B015C01C114D104E104F104E9F0D7
:102C5000C2DDDC01CB0188199909AA09BB09883EAC
:102C60009340A105B10578F321E0C21AD108E1082B
:102C7000F10888EE880E83E0981EA11CB11CC114D7
:102C8000D104E104F10421F7DECFFF90EF90DF9053
:102C9000CF90BF90AF909F908F9008951F920F920A
:102CA0000FB60F9211242F933F938F939F93AF935F
:102CB000BF938091CE059091CF05A091D005B091A2
:102CC000D1053091CD0523E0230F2D3720F4019657
:102CD000A11DB11D05C026E8230F0296A11DB11D3F
:102CE0002093CD058093CE059093CF05A093D0057A
:102CF000B093D1058091D2059091D305A091D405D0
:102D0000B091D5050196A11DB11D8093D205909378
:102D1000D305A093D405B093D505BF91AF919F91F2
:102D20008F913F912F910F900FBE0F901F9018958C
:102D3000FC01838D882319F0948D81E08927089503
:102D4000FC012281338162177307A4F08681978189
:102D5000820F931F6817790768F424813581421721
:102D6000530744F080859185280F391F81E0421771
:102D7000530708F080E00895CF92DF92EF92FF9220
:102D80000F931F93CF93DF936C017A018B01C0E007
:102D9000D0E0CE15DF0589F0D8016D918D01D60107
:102DA000ED91FC910190F081E02DC6011995892BE0
:102DB00011F47E0102C02196ECCFC701DF91CF91C3
:102DC0001F910F91FF90EF90DF90CF900895CF93D8
:102DD000DF93D1E0D0932A03C8E3C0934C03109251
:102DE0002B0310924D03682F8BEE93E00E9408088E
:102DF0004DDBD0932A03C0934C0310922B03109207
:102E00004D0381E0A0DB1092D7058093D6058BEEB1
:102E100093E00E94BD07C82F39DB8C2FDF91CF9143
:102E200008956115710579F0FB0101900020E9F723
:102E30003197AF01461B570BDC01ED91FC910280ED
:102E4000F381E02D199480E090E00895CF93DF9313
:102E5000CDB7DEB762970FB6F894DEBF0FBECDBF19
:102E6000789484B5826084BD84B5816084BD85B565
:102E7000826085BD85B5816085BD80916E00816071
:102E800080936E0010928100809181008260809317
:102E90008100809181008160809381008091800019
:102EA0008160809380008091B10084608093B10044
:102EB0008091B00081608093B00080919100826029
:102EC0008093910080919100816080939100809126
:102ED00090008160809390008091A1008260809337
:102EE000A1008091A10081608093A1008091A00049
:102EF00081608093A00080912101826080932101F4
:102F00008091210181608093210180912001816065
:102F10008093200180917A00846080937A00809170
:102F20007A00826080937A0080917A008160809339
:102F30007A0080917A00806880937A001092C100B4
:102F4000E0915E03F0915F0382E08083E0915A0399
:102F5000F0915B031082E0915C03F0915D031082BD
:102F600010926603E0916203F091630386E0808330
:102F7000E0916003F0916103808180618083E09142
:102F80006003F0916103808188608083E091600339
:102F9000F0916103808180688083E0916003F0910B
:102FA000610380818F7D808380E092E1AAE7B0E0B9
:102FB0008093110490931204A0931304B09314040B
:102FC00061E080911604F6DD60E08091160475DD05
:102FD00061E080911504EEDD61E0809115046DDD06
:102FE0008091180487FD16C061E080911904E2DD2C
:102FF00060E08091190461DD61E080911804DADD00
:1030000061E08091180459DD80911A0487FD02C0A7
:1030100060E0D0DD8091180487FF2FC01FB7F894BF
:1030200080919902811123C0E7EBF6E08491E7E5F6
:10303000F6E09491E82FF0E0EE0FFF1FE85FFE4FFF
:10304000A591B491EC91E92319F461E085E335DDB4
:1030500061E085E3AFDD8CB580618CBD8CB58064AB
:103060008CBD61E084E3A6DD61E083E3A3DD8091B4
:1030700099028F5F809399021FBF8091170487FD8B
:103080001DC061E097DD61E08091170416DD64E604
:1030900070E080E090E0CADD60E0809117040DDD13
:1030A00064E670E080E090E0C1DD61E080911704AB
:1030B00004DD68EC70E080E090E0B8DD87EF93E03D
:1030C0000E943A086FEE87EF93E00E94750C63E070
:1030D00087EF93E00E944A0C60E887EF93E00E943C
:1030E0004A0C62E087EF93E00E944A0C6FEC87EF96
:1030F00093E00E94750C60E087EF93E00E944A0C19
:1031000061EC87EF93E00E944A0C60E387EF93E065
:103110000E944A0C6DEE87EF93E00E94750C64E606
:1031200087EF93E00E944A0C63E087EF93E00E94F0
:103130004A0C62E187EF93E00E944A0C61E887EF56
:1031400093E00E944A0C68EE87EF93E00E94750CB2
:1031500065E887EF93E00E944A0C60E087EF93E018
:103160000E944A0C68E787EF93E00E944A0C6BECE0
:1031700087EF93E00E94750C69E387EF93E00E946C
:103180004A0C6CE287EF93E00E944A0C60E087EF04
:1031900093E00E944A0C64E387EF93E00E944A0C9C
:1031A00062E087EF93E00E944A0C67EF87EF93E0BD
:1031B0000E94750C60E287EF93E00E944A0C6AEE71
:1031C00087EF93E00E94750C60E087EF93E00E9428
:1031D0004A0C60E087EF93E00E944A0C60EC87EFB6
:1031E00093E00E94750C63E287EF93E00E944A0C23
:1031F00061EC87EF93E00E94750C60E187EF93E04C
:103200000E944A0C65EC87EF93E00E94750C6EE318
:1032100087EF93E00E944A0C68E287EF93E00E94F8
:103220004A0C67EC87EF93E00E94750C66E887EF25
:1032300093E00E944A0C66E387EF93E00E94750CCE
:1032400068E487EF93E00E944A0C67E387EF93E01E
:103250000E94750C8091180487FF09C01EBC0DB434
:1032600007FEFDCF1EBC0DB407FEFDCF0AC060E017
:1032700087EF93E00E944A0C60E087EF93E00E94A2
:103280004A0C6AE387EF93E00E94750C65E587EFCF
:1032900093E00E944A0C61EB87EF93E00E94750C6B
:1032A00060E087EF93E00E944A0C68E187EF93E0CB
:1032B0000E944A0C66EB87EF93E00E94750C68E071
:1032C00087EF93E00E944A0C62E887EF93E00E9448
:1032D0004A0C67E287EF93E00E944A0C62EF87EFA7
:1032E00093E00E94750C60E087EF93E00E944A0C27
:1032F00066E287EF93E00E94750C61E087EF93E050
:103300000E944A0C60EE87EF93E00E94750C6FE01C
:1033100087EF93E00E944A0C61E387EF93E00E94FD
:103320004A0C6BE287EF93E00E944A0C6CE087EF57
:1033300093E00E944A0C6EE087EF93E00E944A0CF3
:1033400068E087EF93E00E944A0C6EE487EF93E019
:103350000E944A0C61EF87EF93E00E944A0C67E3FA
:1033600087EF93E00E944A0C67E087EF93E00E94AA
:103370004A0C60E187EF93E00E944A0C63E087EF1C
:1033800093E00E944A0C6EE087EF93E00E944A0CA3
:1033900069E087EF93E00E944A0C60E087EF93E0DA
:1033A0000E944A0C61EE87EF93E00E94750C60E08A
:1033B00087EF93E00E944A0C6EE087EF93E00E9453
:1033C0004A0C64E187EF93E00E944A0C63E087EFC8
:1033D00093E00E944A0C61E187EF93E00E944A0C5F
:1033E00067E087EF93E00E944A0C61E387EF93E088
:1033F0000E944A0C61EC87EF93E00E944A0C68E45B
:1034000087EF93E00E944A0C68E087EF93E00E9408
:103410004A0C6FE087EF93E00E944A0C6CE087EF64
:1034200093E00E944A0C61E387EF93E00E944A0C0C
:1034300066E387EF93E00E944A0C6FE087EF93E02A
:103440000E944A0C61E187EF93E00E94750C68E7E7
:1034500070E080E090E0EADB69E287EF93E00E94B1
:10346000750C68E770E080E090E0E0DB87EF93E0C8
:103470000E94700780EF90E0909300048093FF0318
:1034800080E491E090930204809301041092D705A8
:103490001092D60510922B0310924D03109229031F
:1034A00011E0109328031092030361E084E105DB2F
:1034B00061E085E102DB8091B9008E7F8093B900E5
:1034C0008091B9008D7F8093B90088E48093B80023
:1034D00085E48093BC0010932A0388E380934C0317
:1034E00010922B0310924D0360E88BEE93E00E9444
:1034F000080868E28BEE93E00E9408080E944612DA
:1035000088EA65DC813111F483EA61DC68EC662EBF
:10351000712C7092B3056092B2051092B5051092AD
:10352000B40508E710E01093B7050093B6051093B3
:10353000B9050093B8058FEE93E09093BC05809396
:10354000BB059093BE058093BD05AA24AA94BA2C0E
:10355000B092C005A092BF05E2E04E2E4092BA059F
:10356000F7EFCF2EF3E0DF2ED092B105C092B00579
:1035700089E0E5E5F2E0A1ECB5E001900D928A95D5
:10358000E1F7109296051092950510929805109209
:10359000970510939A050093990510939C05009345
:1035A0009B0580EE97E090939F0580939E059093F6
:1035B000A1058093A005B092A305A092A205A5E065
:1035C000FA2EF0929D05D0929405C092930549E0A1
:1035D00050E06FE572E084EA95E049D710927905F2
:1035E0001092780510927B0510927A0510937D0554
:1035F00000937C0510937F0500937E0580E098EF93
:103600009093820580938105909384058093830530
:10361000B0928605A0928505F0928005D09277053C
:10362000C092760549E050E062E672E087E895E0F6
:103630001ED710925C0510925B05BCE88B2E912C76
:1036400090925E0580925D0508E210E0109360059F
:1036500000935F0510936205009361058FEEE82EDD
:103660008BE7F82EF0926505E0926405F09267050D
:10367000E0926605B0926905A092680593E0592E24
:1036800050926305D0925A05C092590549E050E026
:1036900066E672E08AE695E0EAD622E3222E312C35
:1036A00030923F0520923E05909241058092400560
:1036B000109343050093420510934505009344057C
:1036C000F0924805E0924705F0924A05E0924905DC
:1036D000B0924C05A0924B0550924605D0923D0504
:1036E000C0923C0549E050E068E672E08DE495E068
:1036F000BED624E630E03093220520932105909237
:103700002405809223051093260500932505109328
:10371000280500932705F0922B05E0922A05F092E8
:103720002D05E0922C05B0922F05A0922E05509207
:103730002905D0922005C0921F0549E050E06AE6B5
:1037400072E080E395E0298B3A8B91D686E990E090
:1037500090930505809304059092070580920605D5
:10376000109309050093080510930B0500930A05B3
:10377000F0920E05E0920D05F0921005E0920F0513
:10378000B0921205A092110550920C05D09203053B
:10379000C092020549E050E06CE672E083E195E0FA
:1037A00066D67092E8046092E7049092EA048092F0
:1037B000E9041093EC040093EB041093EE040093DF
:1037C000ED04F092F104E092F004F092F304E09240
:1037D000F204B092F504A092F4045092EF04D09257
:1037E000E604C092E50449E050E06EE672E086EF40
:1037F00094E03DD68AEF90E09093CB048093CA0486
:103800009092CD048092CC041093CF040093CE0408
:103810001093D1040093D004F092D404E092D30426
:10382000F092D604E092D504B092D804A092D704C6
:103830005092D204D092C904C092C80449E050E02A
:1038400060E772E089ED94E012D61092AE04109217
:10385000AD043EEB832E912C9092B0048092AF0485
:103860001093B2040093B1041093B4040093B30412
:10387000F092B704E092B604F092B904E092B80472
:10388000B092BB04A092BA045092B504D092AC049A
:10389000C092AB0449E050E062E772E08CEB94E048
:1038A000E6D53092910420929004909293048092F5
:1038B000920410939504009394041093970400933A
:1038C0009604F0929A04E0929904F0929C04E0929B
:1038D0009B04B0929E04A0929D0450929804D092B2
:1038E0008F04C0928E0449E050E064E772E08FE9F3
:1038F00094E0BDD529893A893093740420937304E8
:103900009092760480927504109378040093770463
:1039100010937A0400937904F0927D04E0927C0481
:10392000F0927F04E0927E04B0928104A092800421
:1039300050927B04D0927204C092710449E050E02E
:1039400066E772E082E894E092D5E6E9F0E0F09371
:103950005704E093560490925904809258041093AF
:103960005B0400935A0410935D0400935C04F0928E
:103970006004E0925F04F0926204E0926104B0920D
:103980006404A092630450925E04D0925504C092E5
:10399000540449E050E068E772E085E694E067D5BA
:1039A00080EF90E090933A048093390470923C0445
:1039B00060923B0440E5E42EF12CF0923E04E0924C
:1039C0003D041093400400933F0480E098E79093F7
:1039D0004304809342049093450480934404B0923E
:1039E0004704A092460440924104D0923804C09209
:1039F000370449E050E06AE772E088E494E037D5A4
:103A000061E0C6010E94210E60E070E0C6010E94E4
:103A10008F0480EB95E00E9426100E940B1002E8B4
:103A200010E0109304040093030485E090E0909369
:103A30000604809305048FE190E090930A0480933C
:103A40000904909308048093070440920B0461E8F2
:103A500072E0C601E6D90E94D40F89E595E00E9484
:103A600026108CE395E00E9426108FE195E00E94DD
:103A7000261082E095E00E94261085EE94E00E94D8
:103A8000261088EC94E00E9426108BEA94E00E94B5
:103A900026108EE894E00E94261081E794E00E94B0
:103AA000261084E594E00E94261087E394E00E94AB
:103AB00026101093040400930304F0920604E0928D
:103AC000050480E29DEF90930A048093090490938B
:103AD00008048093070440920B0468E872E0C60172
:103AE000A0D90E949D0FFF24F39458E3E52ECE0148
:103AF00001966C0160E1762E780E70E4272E332457
:103B00003394412C512C82E062D98150823008F0EC
:103B1000ABC1F0922A03E0924C0310922B03109257
:103B20004D0360E08BEE93E00E9408080E9446126D
:103B3000F0922A03E0924C0310922B0310924D0353
:103B400080E20E94A3121092D7058093D6058601C9
:103B50008BEE93E00E94BD07F80181938F017E12E6
:103B6000F7CF0E9446128B81833018F480932A0489
:103B700002C010922A0480912A04882309F444C0C8
:103B80000C810F7010E0102F00278D81082B1093EF
:103B90002C0400932B048E81A82FAF70B0E0BA2FB5
:103BA000AA279F81A92BB0933004A0932F0490E003
:103BB00024E0959587952A95E1F7909334048093B6
:103BC00033048A858F7090E0982F88272B85822B6D
:103BD00090932E0480932D042C85822F8F7090E07B
:103BE000982F88273D85832B90933204809331044E
:103BF000822F90E054E0959587955A95E1F7909340
:103C000036048093350404C0A0E0B0E000E010E08A
:103C100020EC3EEF4FEF5FEFD7D3A2019101B8D375
:103C200049015A01F0E48F0EF1E09F1EA11CB11C66
:103C3000A801B40183E995E083D8882339F0809105
:103C4000AE058093AF05F092AE05B9C0A801B401EE
:103C500086E795E075D8882339F0809191058093A7
:103C60009205F0929105ABC0A801B40180EB95E0FC
:103C700067D8882339F08091CB058093CC05F092EA
:103C8000CB059DC0A801B40189E595E059D88823EA
:103C900039F08091740580937505F09274058FC09A
:103CA000A801B4018CE395E04BD8882339F08091CA
:103CB000570580935805F092570581C0A801B401BB
:103CC0008FE195E03DD8882339F080913A058093C3
:103CD0003B05F0923A0573C0A801B40182E095E07B
:103CE0002FD8882339F080911D0580931E05F0920E
:103CF0001D0565C0A801B40185EE94E021D8882394
:103D000039F08091000580930105F092000557C0BD
:103D1000A801B40188EC94E013D8882339F080918D
:103D2000E3048093E404F092E30449C0A801B401E1
:103D30008BEA94E005D8882339F08091C6048093FB
:103D4000C704F092C6043BC0A801B4018EE894E019
:103D50000E94A016882339F08091A9048093AA04B8
:103D6000F092A9042CC0A801B40181E794E00E945C
:103D7000A016882339F080918C0480938D04F092F2
:103D80008C041DC0A801B40184E594E00E94A01633
:103D9000882339F080916F0480937004F0926F044F
:103DA0000EC0A801B40187E394E00E94A016882306
:103DB00031F08091520480935304F0925204809128
:103DC000AE05811104C08091AF05811108C08091BA
:103DD0009105811112C080919205882371F0809124
:103DE00098028F25809398020E940B1010929B02DC
:103DF00010929A02F092040234C0809198028823B3
:103E000009F4A0C08091040240919A0250919B0253
:103E1000052E000C660B770B882309F47AC08EE41C
:103E200093E00E94C7116EE872E08EE493E00E9476
:103E3000111780919A0290919B02019690939B0298
:103E400080939A028436910511F4109204026091D5
:103E500000027091010280910202909103020E947F
:103E600016160E94B3134FCE8091AE058093AF0516
:103E70001092AE0580919105809392051092910564
:103E80008091CB058093CC051092CB058091740571
:103E9000809375051092740580915705809358059D
:103EA0001092570580913A0580933B0510923A0590
:103EB00080911D0580931E0510921D0580910005BF
:103EC00080930105109200058091E3048093E4043F
:103ED0001092E3048091C6048093C7041092C60434
:103EE0008091A9048093AA041092A90480918C0463
:103EF00080938D0410928C0480916F0480937004E1
:103F000010926F04809152048093530410925204D3
:103F100056CF8EE493E00E94C7116EE872E08EE403
:103F200093E00E94111780919A0290919B02019751
:103F300090939B0280939A02892B09F088CFF0928C
:103F4000040285CF80EB95E00E949816882399F0B3
:103F50008091940290919502A0919602B09197025F
:103F60008093000290930102A0930202B093030297
:103F70000E94D40F76CF89E595E00E949816882399
:103F8000A1F02091940230919502409196025091B7
:103F90009702AAE0B0E018D2609394027093950261
:103FA0008093960290939702E6C08CE395E00E947E
:103FB0009816882389F020919402309195024091BF
:103FC000960250919702AAE0B0E0FED1DC01CB014D
:103FD0000196A11DB11DB7C08FE195E00E94981612
:103FE000882389F0209194023091950240919602A5
:103FF00050919702AAE0B0E0E7D1DC01CB01029634
:10400000A11DB11DA0C082E095E00E9498168823F2
:1040100089F020919402309195024091960250913E
:104020009702AAE0B0E0D0D1DC01CB010396A11D3C
:10403000B11D89C085EE94E00E949816882389F00E
:1040400020919402309195024091960250919702EE
:10405000AAE0B0E0B9D1DC01CB010496A11DB11DED
:1040600072C088EC94E00E949816882389F0209111
:104070009402309195024091960250919702AAE0E5
:10408000B0E0A2D1DC01CB010596A11DB11D5BC042
:104090008BEA94E00E949816882389F0209194027C
:1040A000309195024091960250919702AAE0B0E0BB
:1040B0008BD1DC01CB010696A11DB11D44C08EE859
:1040C00094E00E949816882389F020919402309100
:1040D00095024091960250919702AAE0B0E074D107
:1040E000DC01CB010796A11DB11D2DC081E794E035
:1040F0000E949816882389F02091940230919502AD
:104100004091960250919702AAE0B0E05DD1DC01A7
:10411000CB010896A11DB11D16C084E594E00E9454
:1041200098168823C9F0209194023091950240910D
:10413000960250919702AAE0B0E046D1DC01CB0193
:104140000996A11DB11D8093940290939502A093AE
:104150009602B09397020FC087E394E00E949816EE
:10416000882309F47ECE1092940210929502109248
:104170009602109297020E949D0F73CEEEE4F3E038
:104180001382128288EE93E0A0E0B0E084839583EE
:10419000A683B78329E032E03183208325EC30E029
:1041A0003587248724EC30E03787268720EC30E001
:1041B000318B208B21EC30E0338B228B22EC30E0F2
:1041C000358B248B26EC30E0378B268B118E128EAC
:1041D000138E148EEBEEF3E01382128284839583A8
:1041E000A683B7838BE192E0918380831092B1051F
:1041F0001092B005109294051092930510927705D5
:104200001092760510925A051092590510923D05AC
:1042100010923C051092200510921F051092030584
:10422000109202051092E6041092E5041092C9045F
:104230001092C8041092AC041092AB0410928F0438
:1042400010928E0410927204109271041092550410
:10425000109254041092380410923704A7EFB3E080
:1042600013961C921E92129720EF30E015963C9305
:104270002E93149780E491E017969C938E93169753
:1042800019963C932E9318971B969C938E931A978E
:1042900055961C9255971D961C921E921C971F9620
:1042A0001C921E921E9781E054968C9354972FEF88
:1042B0003FEF53963C932E93529751963C932E93F7
:1042C000509756968C93569757961C925797599697
:1042D0001C921E9258978DE292E011969C938E93B9
:1042E0008AE05E968C935E9789E05F968C935F97E9
:1042F0008FEF90968C93909791968C93919792963E
:104300008C93929793968C9393975A961D921D92A5
:104310001D921C925D97ECE8F6E0E491F0E0EE0F60
:10432000FF1FE859F94F859194919D969C938E9328
:104330009C97ECE2F6E0E491D196EC93D197EBE810
:10434000F6E0E491F0E0EE0FFF1FE859F94F859198
:1043500094919B969C938E939A97EBE2F6E0E4916E
:10436000D296EC93D29799961C921E929897D096DB
:104370001C92D09795961C921E9294979E961C9292
:104380009E9797961C921E9296979F961C920895C0
:10439000052E97FB16F400940FD057FD05D01ED0C4
:1043A00007FC02D046F408C0509540953095219501
:1043B0003F4F4F4F5F4F0895909580957095619551
:1043C0007F4F8F4F9F4F08952BD0A59F900DB49F87
:1043D000900DA49F800D911D11240895A1E21A2E25
:1043E000AA1BBB1BFD010DC0AA1FBB1FEE1FFF1F99
:1043F000A217B307E407F50720F0A21BB30BE40BE9
:10440000F50B661F771F881F991F1A9469F760952F
:104410007095809590959B01AC01BD01CF010895E9
:10442000A29FB001B39FC001A39F700D811D1124F5
:10443000911DB29F700D811D1124911D0895EE0FE5
:10444000FF1F881F8BBF0790F691E02D1994E8DFBE
:10445000332312F48A1B9B0B01C0E2DFB7FF0895E0
:10446000821B930B089581E090E0F8940FC0FB014C
:10447000DC014150504048F001900D920020C9F7F6
:1044800001C01D9241505040E0F70895F894FFCFCD
:104490006400000001000000004C13BC16E51292FD
:1044A000131613F4120813000000000808D9073788
:1044B00008AD07D107BD07AE07000000002814BCF7
:1044C000163708360813073A08BE0D300D5C074949
:1044D00007B8057007210EFC0DD9069F0661068FEF
:1044E000041904BA03534554205350454544004F22
:1044F0004E004F4646003000310032003300340099
:104500003500360037003800390044656C65746545
:104510000053706565643A0054656D703A000D0A89
:04452000006D7300B7
:020000023000CC
:10E000000D9489F10D94B2F10D94B2F10D94B2F129
:10E010000D94B2F10D94B2F10D94B2F10D94B2F1F0
:10E020000D94B2F10D94B2F10D94B2F10D94B2F1E0
:10E030000D94B2F10D94B2F10D94B2F10D94B2F1D0
:10E040000D94B2F10D94B2F10D94B2F10D94B2F1C0
:10E050000D94B2F10D94B2F10D94B2F10D94B2F1B0
:10E060000D94B2F10D94B2F10D94B2F10D94B2F1A0
:10E070000D94B2F10D94B2F10D94B2F10D94B2F190
:10E080000D94B2F10D94B2F10D94B2F10D94B2F180
:10E090000D94B2F10D94B2F10D94B2F10D94B2F170
:10E0A0000D94B2F10D94B2F10D94B2F10D94B2F160
:10E0B0000D94B2F10D94B2F10D94B2F10D94B2F150
:10E0C0000D94B2F10D94B2F10D94B2F10D94B2F140
:10E0D0000D94B2F10D94B2F10D94B2F10D94B2F130
:10E0E0000D94B2F141546D656761323536300041AF
:10E0F000726475696E6F206578706C6F72657220DE
:10E1000073746B3530305632206279204D4C530099
:10E11000426F6F746C6F616465723E004875683F52
:10E1200000436F6D70696C6564206F6E203D200048
:10E130004350552054797065202020203D20005FF9
:10E140005F4156525F415243485F5F3D2000415658
:10E1500052204C696243205665723D20004743437C
:10E160002056657273696F6E203D20004350552024
:10E1700049442020202020203D20004C6F7720663D
:10E18000757365202020203D20004869676820665F
:10E190007573652020203D200045787420667573D6
:10E1A00065202020203D20004C6F636B2066757336
:10E1B000652020203D20004D617220203720323024
:10E1C000313300312E362E3800342E332E350056A2
:10E1D00023202020414444522020206F7020636F70
:10E1E00064652020202020696E73747275637469E1
:10E1F0006F6E2061646472202020496E74657272B3
:10E20000757074006E6F20766563746F7200726A49
:10E210006D702020006A6D70200057686174207056
:10E220006F72743A00506F7274206E6F7420737541
:10E2300070706F72746564004D7573742062652030
:10E2400061206C6574746572002000577269747483
:10E25000696E672045450052656164696E672045B7
:10E26000450045452065727220636E743D00504F35
:10E27000525400303D5A65726F2061646472003FF1
:10E280003D43505520737461747300403D454550C3
:10E29000524F4D207465737400423D426C696E6B41
:10E2A000204C454400453D44756D70204545505215
:10E2B0004F4D00463D44756D7020464C415348001B
:10E2C000483D48656C70004C3D4C69737420492F83
:10E2D0004F20506F72747300513D51756974005234
:10E2E0003D44756D702052414D00563D73686F7707
:10E2F00020696E7465727275707420566563746FF0
:10E30000727300593D506F727420626C696E6B00BD
:10E310002A0011241FBECFEFD1E2DEBFCDBF01E046
:10E320000CBF12E0A0E0B2E0EEE1FDEF03E00BBFB6
:10E3300002C007900D92A030B107D9F712E0A0E01B
:10E34000B2E001C01D92AE30B107E1F70F9460F367
:10E350000D948DFE01E20EBF0FEF0DBF11241FBE05
:10E360000D9460F30D9400F020E030E040ED57E0B4
:10E3700005C0FA013197F1F72F5F3F4F2817390792
:10E38000C0F308959C01260F311DC901A0E0B0E043
:10E390002F5F3F4FABBFFC018791882361F08093D3
:10E3A000C6008091C00086FFFCCF8091C0008064D1
:10E3B0008093C000EACF08958DE08093C6008091DD
:10E3C000C00086FFFCCF8091C00080648093C000B5
:10E3D0008AE08093C6008091C00086FFFCCF8091C8
:10E3E000C00080648093C00008950F94C2F10F9420
:10E3F000DCF10895FC019081992359F09093C600B7
:10E400008091C00086FFFCCF8091C0008064809323
:10E41000C0003196992379F70895282F982F929567
:10E420009F70892F805D8A3308F0895F8093C600D2
:10E430008091C00086FFFCCF8091C00080648093F3
:10E44000C000822F8F70982F905D9A3308F0995FEB
:10E450009093C6008091C00086FFFCCF8091C000E1
:10E4600080648093C00008959C01FB01853691056E
:10E470001CF46330710594F0C90164E670E00F94F8
:10E480002EFE605D7F4F6093C6008091C00086FFC6
:10E49000FCCF8091C00080648093C0002B30310598
:10E4A00014F43297B4F0C90164E670E00F942EFEC4
:10E4B0006AE070E00F942EFE605D7F4F6093C600AF
:10E4C0008091C00086FFFCCF8091C0008064809363
:10E4D000C000C9016AE070E00F942EFEC0968093E0
:10E4E000C6008091C00086FFFCCF8091C000806490
:10E4F0008093C00008951F93182F8EE692EE60E07F
:10E500000F94C2F11093C6008091C00086FFFCCF2B
:10E510008091C00080648093C0000F94DCF11F9153
:10E5200008952F923F924F925F926F927F928F92B7
:10E530009F92AF92BF92CF92DF92EF92FF920F9392
:10E540001F93DF93CF93CDB7DEB762970FB6F894E2
:10E55000DEBF0FBECDBF382E622ECA01DB015C01CB
:10E560006D01772420E2222E2E010894411C511CBB
:10E570008BC081E0A81680E0B80681E0C80680E084
:10E58000D80628F0C601AA27BB270F940DF2BB2797
:10E59000AD2D9C2D8B2D0F940DF28A2D0F940DF225
:10E5A0002092C6008091C00086FFFCCF8091C00001
:10E5B00080648093C0009DE29093C6008091C0006B
:10E5C00086FFFCCF8091C00080648093C0002092C1
:10E5D000C6008091C00086FFFCCF8091C00080649F
:10E5E0008093C00019828601750188249924A1E0D6
:10E5F0003A1651F03A1620F0B2E03B1661F409C029
:10E600000BBFF701779007C0C7010F9477FE782EF4
:10E6100002C0F7017080872D0F940DF22092C60082
:10E620008091C00086FFFCCF8091C0008064809301
:10E63000C000872D8052F401EF70F0708F3520F408
:10E64000E40DF51D708204C0E40DF51D8EE280839B
:10E650000894E11CF11C011D111D0894811C911CE2
:10E6600090E18916910409F0C2CF80E190E0A0E02A
:10E67000B0E0A80EB91ECA1EDB1E198AC2010F9493
:10E68000FAF10F94DCF16A94662009F072CF629679
:10E690000FB6F894DEBF0FBECDBFCF91DF911F91B3
:10E6A0000F91FF90EF90DF90CF90BF90AF909F9031
:10E6B0008F907F906F905F904F903F902F90089534
:10E6C0002F923F924F925F926F927F928F929F9282
:10E6D000AF92BF92CF92DF92EF92FF920F931F9370
:10E6E000DF93CF93CDB7DEB7CD53D1400FB6F894BB
:10E6F000DEBF0FBECDBF01E20EBF0FEF0DBF94B75F
:10E70000F894A89514BE80916000886180936000A1
:10E7100010926000789493FF05C0E0910002F091A0
:10E7200001021995279A2F9A8091C00082608093E8
:10E73000C00080E18093C40088E18093C1000000A4
:10E74000EE24FF24870144E0A42EB12CCC24DD2448
:10E7500024C0C5010197F1F70894E11CF11C011DCB
:10E76000111D21E2E2162EE4F20620E0020720E06D
:10E77000120718F031E0C32ED12CC801B70127ECE5
:10E780003BE140E050E00F9441FE611571058105C9
:10E79000910519F485B1805885B98091C00087FD35
:10E7A00003C0C114D104A9F2A6014F5F5F4FC25E3E
:10E7B000DE4F59834883CE51D140C25EDE4F8881FF
:10E7C0009981CE51D140019711F00D9410FEC05D9A
:10E7D000DE4F19821882C053D14060E0C15DDE4F28
:10E7E0001882CF52D14088249924C35DDE4F19820C
:10E7F0001882CD52D140C05EDE4F188219821A8233
:10E800001B82C052D140CE5CDE4F188219821A8220
:10E810001B82C253D140EE24FF2487010BBFF701B6
:10E8200007911691C45CDE4F19830883CC53D14005
:10E830000D940BFEC25EDE4F28813981CE51D1404E
:10E840002130310509F52091C600C25EDE4F1982E4
:10E850001882CE51D14022C02F5F3F4F4F4F5F4FA4
:10E86000213082E138078AE7480780E0580780F0C6
:10E87000C45CDE4FE881F981CC53D140EF5FFF4F9C
:10E8800019F0EE27FF27099420E030E040E050E047
:10E890008091C00087FFE0CF2091C600C35DDE4FAE
:10E8A00048815981CD52D1404F5F5F4FC35DDE4FEC
:10E8B00059834883CD52D140213209F063C64A3092
:10E8C000510508F05FC60894811C911C53E0851621
:10E8D000910409F059C600E010E018C081E280936D
:10E8E000C6008091C00086FFFCCF8091C00080648C
:10E8F0008093C0002F5F3F4F2931310579F70F9486
:10E90000DCF10F5F1F4F0530110519F020E030E0FA
:10E91000E5CF10920A0210920B0210920C02109294
:10E920000D02109206021092070210920802109235
:10E930000902109202021092030210920402109235
:10E9400005028FEE90EE60E00F94F5F180E191EE1C
:10E9500060E00F94C2F18091C00087FFFCCF9091DE
:10E96000C600903608F09F759032B8F09093C600BC
:10E970008091C00086FFFCCF8091C00080648093AE
:10E98000C000A0E2A093C6008091C00086FFFCCF2B
:10E990008091C00080648093C000983409F4D7C18E
:10E9A0009934B8F4923409F459C1933458F490333B
:10E9B00019F1903308F4E3C59F33A1F1903409F0C5
:10E9C000DEC5BDC0953409F470C1963409F0D7C5D1
:10E9D00098C1923509F42BC2933538F49C3409F46C
:10E9E000F5C1913509F0CBC518C2963509F445C279
:10E9F000993509F0C4C567C483E792EE62E00F94CD
:10EA0000F5F110920602109207021092080210927D
:10EA1000090210920A0210920B0210920C0210923C
:10EA20000D0213C18FE792EE62E00F94F5F18FEEC5
:10EA300090EE60E00F94F5F181E291EE60E00F94CA
:10EA4000C2F187EB91EE60E00F94F5F180E391EE77
:10EA500060E00F94C2F184EE90EE60E00F94F5F167
:10EA60008FE391EE60E00F94C2F186E090E061E008
:10EA700070E00F9434F20F94DCF18DE591EE60E0DC
:10EA80000F94C2F189EC91EE60E00F94F5F18EE401
:10EA900091EE60E00F94C2F183EC91EE60E00F9490
:10EAA000F5F18CE691EE60E00F94C2F18EE10F94E7
:10EAB0000DF288E90F940DF281E00F940DF20F949E
:10EAC000DCF18BE791EE60E00F94C2F119E0E0E039
:10EAD000F0E010935700E4918E2F0F940DF20F94F5
:10EAE000DCF18AE891EE60E00F94C2F1E3E0F0E03F
:10EAF00010935700E4918E2F0F940DF20F94DCF1D8
:10EB000089E991EE60E00F94C2F1E2E0F0E0109349
:10EB10005700E4918E2F0F940DF20F94DCF188EAE8
:10EB200091EE60E00F94C2F1E1E0F0E01093570045
:10EB30001491812F0F940DF20F94DCF107CF8BE825
:10EB400092EE62E00F94F5F18BE492EE60E00F94A8
:10EB5000F5F10F94DCF100E010E019C0C8016F2D51
:10EB60000F947FFEFF2031F489E492EE60E00F9471
:10EB7000C2F10BC0F092C6008091C00086FFFCCFAE
:10EB80008091C00080648093C0000F5F1F4FC80158
:10EB900081519F41A0E0B0E0ABBFFC01F790BAE229
:10EBA000FB1621F0E2E000301E07C1F60F94DCF105
:10EBB0000F94DCF187E592EE60E00F94F5F10F948D
:10EBC000DCF1CC24DD2400E010E01EC0C8010F946D
:10EBD00077FEF82E882331F489E492EE60E00F94FA
:10EBE000C2F10BC08093C6008091C00086FFFCCFAD
:10EBF0008091C00080648093C000FE1419F00894D6
:10EC0000C11CD11C0F5F1F4FC80181519F41A0E063
:10EC1000B0E0ABBFFC01E790FAE2EF1621F022E092
:10EC20000030120799F60F94DCF10F94DCF182E6C4
:10EC300092EE60E00F94C2F1C60161E070E00F94C3
:10EC400034F20F94DCF10F94DCF110920202109276
:10EC50000302109204021092050278CE89E992EE26
:10EC600062E00F94F5F1279A2F9A16C02F9880E052
:10EC700090E0E0EDF7E03197F1F7019684369105E9
:10EC8000C1F72F9A80E090E0E0EDF7E03197F1F7DF
:10EC9000019684369105C1F78091C00087FFE6CFC9
:10ECA0008091C00087FFFCCF64C485EA92EE62E0E9
:10ECB0000F94F5F140910202509103026091040219
:10ECC0007091050281E020E10F9491F2809102029F
:10ECD00090910302A0910402B091050280509F4FD1
:10ECE000AF4FBF4F8093020290930302A0930402A0
:10ECF000B093050280509041A040B04008F426CE69
:10ED0000A4CF83EB92EE62E00F94F5F140910602FE
:10ED100050910702609108027091090280E020E1A1
:10ED20000F9491F28091060290910702A09108023F
:10ED3000B091090280509F4FAF4FBF4F80930602A2
:10ED400090930702A0930802B0930902FFCD80ECD4
:10ED500092EE62E00F94F5F183E792EE60E00F949B
:10ED6000F5F18FE792EE60E00F94F5F18BE892EE0B
:10ED700060E00F94F5F189E992EE60E00F94F5F10F
:10ED800085EA92EE60E00F94F5F183EB92EE60E09D
:10ED90000F94F5F180EC92EE60E00F94F5F187ECC2
:10EDA00092EE60E00F94F5F188ED92EE60E00F9442
:10EDB000F5F18FED92EE60E00F94F5F18AEE92EEB0
:10EDC00060E00F94F5F183E093EEBDCD87EC92EE19
:10EDD00062E00F94F5F181E40F947BF282E40F94EA
:10EDE0007BF283E40F947BF284E40F947BF285E45E
:10EDF0000F947BF286E40F947BF287E40F947BF20E
:10EE000088E40F947BF28AE40F947BF28BE40F94F6
:10EE10007BF28CE40F947BF299CD88ED92EE62E068
:10EE20000F94F5F1772473948824992409C48FED05
:10EE300092EE62E00F94F5F140910A0250910B02BC
:10EE400060910C0270910D0282E020E10F9491F22A
:10EE500080910A0290910B02A0910C02B0910D02D8
:10EE600080509F4FAF4FBF4F80930A0290930B0289
:10EE7000A0930C02B0930D0269CD8AEE92EE62E08F
:10EE80000F94F5F184EE90EE60E00F94F5F18FECC5
:10EE900091EE60E00F94F5F1662477244301CC5D98
:10EEA000DE4F19821882C452D140D401C301B695F5
:10EEB000A79597958795CA5DDE4F88839983AA8326
:10EEC000BB83C652D140CC5DDE4FA881B981C4520C
:10EED000D1401196CC5DDE4FB983A883C452D14096
:10EEE000CD0162E070E00F9434F2B0E2B093C6005E
:10EEF0008091C00086FFFCCF8091C0008064809329
:10EF0000C000EDE2E093C6008091C00086FFFCCF18
:10EF10008091C00080648093C000F0E2F093C6004E
:10EF20008091C00086FFFCCF8091C00080648093F8
:10EF3000C000CA5DDE4FE880F9800A811B81C6529D
:10EF4000D140BB27A12F902F8F2D0F940DF2CA5DBA
:10EF5000DE4F8881C652D1400F940DF2B0E2FB2EF5
:10EF6000F092C6008091C00086FFFCCF8091C00067
:10EF700080648093C0000DE30093C6008091C000C0
:10EF800086FFFCCF8091C00080648093C00010E2B7
:10EF90001093C6008091C00086FFFCCF8091C00016
:10EFA00080648093C0008BBEF3012791C65DDE4F65
:10EFB0002883CA52D140A22EBB24CC24DD2408943D
:10EFC000611C711C811C911C8BBEF3018791282E42
:10EFD0003324442455240894611C711C811C911C09
:10EFE0008BBEF3013791C55DDE4F3883CB52D140E4
:10EFF0000894611C711C811C911C8BBEF30147910C
:10F00000C45DDE4F4883CC52D140ADEFEA2EAFEF66
:10F01000FA2EAFEF0A2FAFEF1A2F6E0C7F1C801E57
:10F02000911E142D032DF22CEE24EA0CFB1C0C1D5A
:10F030001D1D0F940DF220E22093C6008091C000A8
:10F0400086FFFCCF8091C00080648093C000C65DC5
:10F05000DE4F8881CA52D1400F940DF230E23093D6
:10F06000C6008091C00086FFFCCF8091C000806404
:10F070008093C000C45DDE4F8881CC52D1400F9494
:10F080000DF240E24093C6008091C00086FFFCCFA5
:10F090008091C00080648093C000C55DDE4F888190
:10F0A000CB52D1400F940DF250E25093C6008091A4
:10F0B000C00086FFFCCF8091C00080648093C000B8
:10F0C0008FEFE8168FEFF80680E0080780E018075A
:10F0D00031F484E092EE60E00F94C2F1DFC0D80119
:10F0E000C7018070907CA070B0708050904CA040A0
:10F0F000B040D1F52FEF3FE340E050E0E222F322B1
:10F1000004231523CA5DDE4FA880B980CA80DB8046
:10F11000C652D140AE0CBF1CC01ED11EAA0CBB1CD7
:10F12000CC1CDD1C8EE092EE60E00F94C2F1BB2798
:10F13000A12F902F8F2D0F940DF28E2D0F940DF285
:10F1400030E23093C6008091C00086FFFCCF8091F2
:10F15000C00080648093C0004EE34093C60080915D
:10F16000C00086FFFCCF87C08EE09EEFA0E0B0E03D
:10F17000E822F9220A231B239CE0E91694E9F90608
:10F1800090E0090790E0190709F088C0C45DDE4FE0
:10F19000A881CC52D140EA2EFF2400E010E0102FCD
:10F1A0000F2DFE2CEE24C55DDE4FB881CB52D14031
:10F1B000EB0EF11C011D111DD601C501817090706F
:10F1C000A070B070DC0199278827E80EF91E0A1F8D
:10F1D0001B1F20EF30E040E050E0A222B322C42207
:10F1E000D52241E1AA0CBB1CCC1CDD1C4A95D1F7F1
:10F1F000EA0CFB1C0C1D1D1D81E090E0A0E0B0E0BE
:10F20000282239224A225B2235E1220C331C441C7D
:10F21000551C3A95D1F7E20CF31C041D151D57013E
:10F220006801AA0CBB1CCC1CDD1C85E192EE60E0E1
:10F230000F94C2F1C801AA27BB270F940DF2BB2778
:10F24000A12F902F8F2D0F940DF28E2D0F940DF274
:10F2500090E29093C6008091C00086FFFCCF809121
:10F26000C00080648093C000AEE3A093C60080918C
:10F27000C00086FFFCCF8091C00080648093C000F6
:10F28000C601AA27BB270F940DF2BB27AD2D9C2DDD
:10F290008B2D0F940DF28A2D0F940DF20F94DCF14B
:10F2A000CC5DDE4FE881F981C452D140F99709F471
:10F2B0004DCBF4E0EF2EF12C012D112D6E0C7F1CA7
:10F2C000801E911EF2CD83E093EE62E00F94F5F183
:10F2D0008AE192EE60E00F94C2F18091C00087FF56
:10F2E000FCCF1091C6001F751093C6008091C0001E
:10F2F00086FFFCCF8091C00080648093C0000F9493
:10F30000DCF1812F81548A3108F036C1163409F4BA
:10F3100095C0173490F4133409F44EC0143430F40B
:10F320001134F1F0123409F01DC130C0143409F465
:10F3300059C0153409F016C16BC01A3409F4C4C0A1
:10F340001B3438F4173409F48FC0183409F00AC19B
:10F35000A1C01B3409F4D2C01C3409F003C1E8C0B9
:10F360008FEF81B90DC082B1809582B980E090E0C5
:10F37000E0EDF7E03197F1F70196883C9105C1F790
:10F380008091C00087FFEFCF12B8EFC08FEF84B934
:10F390000DC085B1809585B980E090E0E0EDF7E0A3
:10F3A0003197F1F70196883C9105C1F78091C00033
:10F3B00087FFEFCF15B8D9C08FEF87B90DC088B1DF
:10F3C000809588B980E090E0E0EDF7E03197F1F7C3
:10F3D0000196883C9105C1F78091C00087FFEFCF6F
:10F3E00018B8C3C08FEF8AB90DC08BB180958BB9A7
:10F3F00080E090E0E0EDF7E03197F1F70196883C8E
:10F400009105C1F78091C00087FFEFCF1BB8ADC059
:10F410008FEF8DB90DC08EB180958EB980E090E0F0
:10F42000E0EDF7E03197F1F70196883C9105C1F7DF
:10F430008091C00087FFEFCF1EB897C08FEF80BBD1
:10F440000DC081B3809581BB80E090E0E0EDF7E0F6
:10F450003197F1F70196883C9105C1F78091C00082
:10F4600087FFEFCF11BA81C08FEF83BB0DC084B38C
:10F47000809584BB80E090E0E0EDF7E03197F1F714
:10F480000196883C9105C1F78091C00087FFEFCFBE
:10F4900014BA6BC08FEF809301010FC080910201FD
:10F4A00080958093020180E090E0E0EDF7E03197F5
:10F4B000F1F70196883C9105C1F78091C00087FF64
:10F4C000EDCF1092020151C08FEF809304010FC065
:10F4D0008091050180958093050180E090E0E0ED4A
:10F4E000F7E03197F1F70196883C9105C1F78091DB
:10F4F000C00087FFEDCF1092050137C08FEF8093DA
:10F5000007010FC08091080180958093080180E079
:10F5100090E0E0EDF7E03197F1F70196883C910536
:10F52000C1F78091C00087FFEDCF109208011DC088
:10F530008FEF80930A010FC080910B01809580931B
:10F540000B0180E090E0E0EDF7E03197F1F70196F4
:10F55000883C9105C1F78091C00087FFEDCF1092E4
:10F560000B0103C085E292EEEEC98091C00087FFD7
:10F57000FCCF8091C600EAC988E392EEE4C98CE131
:10F5800091EEE1C988249924933011F1943028F444
:10F59000913089F09230B8F408C0953061F195301F
:10F5A000F0F0963009F048C043C02B3109F042C951
